:020000040800F2
:2000000000280020F100000839010008390100083901000839010008390100080000000055
:200020000000000000000000000000003901000839010008000000003901000839010008B8
:20004000390100083901000839010008390100083901000839010008390100083901000890
:20006000390100083901000839010008390100083901000839010008390100083901000870
:2000800039010008390100083901000839010008F90400083901000839010008390100088D
:2000A000390100083901000839010008390100083901000839010008390100083901000830
:2000C000390100083901000839010008390100083901000839010008390100083901000810
:2000E0003901000839010008390100085FF808F1002100F004B80B4B5B58435004310A48FA
:200100000A4B42189A42FFF4F6AF094A00F003B8002342F8043B074B9A42FFF4F9AF00F069
:2001200045FA70473C19000800000020C8020020C80200200C030020FFF7FEBF7047704728
:20014000704703288CBF02200020704770470000034B1B689B7A13B1024B05221A60704773
:200160000403002010030020704770477047704770477047014B04221A6070471003002005
:2001800010B500F089FC214B214A1B68002412689C72D27920465A721E4A1F4B14601968DB
:2001A00021F4EC4121F0700141F4007189B21960196821F4E04121F0400189B281F010015B
:2001C00019601168154B89B20B445B0040211960136880229BB203F1005303F540535B0077
:2001E0001A6000F039FE0E4B20461B6893F8301000F08EFE204600F020FE0A4B0122204683
:20020000BDE810401A6001F025BB00BF04030020B8020020505C0040005C00400430002002
:20022000DC0200201003002038B5124B05461A681C46127802F07F02212A19D100F0C2FC34
:20024000B0B1681E042813D8DFE800F0030507120900094B04E0094B02E0094B00E0094BC9
:20026000226800242046936154829847204638BD022038BD040300200D0B0008350B0008C0
:20028000F50A0008DD0A0008014901F0E3B800BF44010020014901F0DDB800BFB802002005
:2002A000054B1B689B78072B04D8044901EBC30101F0D0B800207047040300209400002022
:2002C000014901F0C7B800BFE000002008B5084B1B681B7803F07F03212B06D100F072FC89
:2002E00000280CBF0220002008BD022008BD00BF0403002037B5194C0C20256800F080FBC2
:20030000284040F48035256015480C21002200F0BBF900230193019BB3F5007F02D2019BCD
:200320000133F7E70C20256800F06AFB284040F48025256000F076FB0A4BC2B218600A4BE0
:20034000C0F3072083F8292083F82A00074B5A71987100F0A7FE03B030BD00BF04080140F3
:2003600000080140C8020020EC00002029010020044B1A6892B242F00C021A60024B0322B3
:200380001A607047405C004010030020044B4FF6FB7219680A401A604FF43F421A607047E2
:2003A000405C004010B51E4C072818BF20702378052B32D8DFE803F003060A0E1621FFF7BF
:2003C000E5FF2AE0FFF7E2FF042327E002236370032323E06378013BDBB263706378F3B90B
:2003E000042217E00F4B1A6892B242F010021A60052323700A23637010BD6378013BDBB2D6
:20040000637063785BB9074A4FF6EF7311680B4013600622024B1A7010BD0623237010BD96
:20042000CE020020405C0040064B01221A60064A00200649186010604FF4E0520A801A60E2
:20044000704700BF405C0040445C004008030020044B01221A60044A0020106003221A60D6
:20046000704700BF405C0040445C0040FFF7F0BF07B514238DF8043000238DF805308DF897
:20048000063001A801238DF8073000F001FA03B05DF804FB10B500F0D1FA094B00241B6830
:2004A0009C72FFF7C1FF074B074A1C604FF43F431380064A1360FFF7DBFF054B1C6010BDD5
:2004C00004030020445C004008030020405C00401003002007B514238DF8043001A8002363
:2004E0008DF805308DF806308DF8073000F0D0F903B05DF804FB000070B5274D274C2B686C
:20050000274E9BB22380228833881340590505D54FF6FF332B60234B5B689847228833880F
:200520001A40920444BF4DF6FF722A6022881340DB0405D54EF6FF732B600020FFF732FF4C
:20054000228833881340180504D5FFF711FF4FF2FF732B60228833881A40910507D54FF633
:20056000FF522A60104A11780131C9B2117022881340DA0505D54FF6FF632B600720FFF78A
:2005800011FF2288338813401B0403D5BDE8704000F0DEBC70BD00BF445C0040CC02002003
:2005A00008030020000000200C03002037B500F0A7F800F0C9F800F0F7F8FFF79BFE00F037
:2005C00009F900F041F9012804464FF0000302D0022835D008E0009328480D2105224FF4B6
:2005E000A02300F065F844E0009324480D2105224FF4A02300F05CF8214800F0F9F828B106
:2006000000F04EF8041C18BF012432E01D4800F0EFF80028F4D101242BE000230093174808
:200620000D2101224FF4801300F042F800F0E8FB08B100F0EBFB0135052DEEDD002CECD1EB
:20064000104800F0D5F808B10E4804E00C4800F0CFF818B10A4800F063F90CE000900D2176
:20066000064805224FF4A02300F022F800F06CF901E00025E0E7002003B030BD00100140C2
:200680000050000800200008012303FA01F1D2F1010238BF002213019940016170470000E2
:2006A000024B1868C0F38000704700BF080C01402DE9F0479DF820A01446CAF10107FFB2FF
:2006C0003A46804689461E46FFF7DEFFB4B1354615B100BF013DFBE7404649465246FFF7A6
:2006E000D3FF354615B100BF013DFBE7404649463A46013CFFF7C8FFE4B2E7E7BDE8F087F9
:200700000D4B0E491A6842F001021A600C4A106801401160196821F0847121F480311960B3
:20072000196821F480211960136823F4FE031360044B00221A607047001002400000FFF818
:200740000410024008100240154B1A6842F001121A601A6812489203FBD5124A1221116007
:20076000A2F6FC72116841F4E81141F480611160016841F080710160196811F0407FFBD04D
:20078000116841F00201116011680907FCD59A6942F4FE729A61DA6942F40002DA617047D0
:2007A0000010024000200240094B1A6822F4706242F480621A604FF480221A61D3F80424E2
:2007C00022F4700242F48012C3F80424704700BF000C0140054B1A68D10703D41A6842F0EE
:2007E00001021A601A689207FCD5704700100240036803481840B0F100535842584170479B
:200800000000FE2F044A08B543681060026882F30888984708BD00BF08ED00E0084BDA6948
:2008200042F0C052DA61A3F5D0331A6842F480721A60044A10851A6822F480721A607047DC
:2008400000100240006C004038B50F4B44F24C21DA691D4642F0C052DA610C4A128D92B252
:200860008A4205D044F24D239A4203D0002409E0012400E002240020FFF7D0FFEB6923F0FE
:20088000C053EB61204638BD00100240006C0040184B30B5DB684478DB43C3F30223C3F1AC
:2008A000040204FA02F20F24DC40817803780C40144303F00301C9002401FF228C408A403E
:2008C00003F0FC0303F1604303F56143D3F8005325EA020122400A43C3F800230378012298
:2008E000590903F01F0302FA03F3034A42F8213030BD00BF00ED00E000E100E0074B4FF0EC
:20090000FF32C3F88020C3F88420C3F88021C3F88421042243F8F02C704700BF00E100E07C
:2009200010B5084B802204461A60FFF7D3FDFFF7E5FFFFF79BFDFFF7E3FE2046BDE81040D9
:20094000FFF760BF10200240024A034BDA6000BFFDE700BF0400FA0500ED00E00A4B10B5F0
:200960001A6802221A60094A1168144611F0010FF9D1906042221A60226812F00101FBD12E
:200980001960012010BD00BF102002400C20024037B58BB200930B0C01930E4B01221C68EA
:2009A0001A600D4A1568ED07FBD4019DADB245801568ED07FCD4009DADB205801568ED0731
:2009C000FCD424F001021A600068431A5842584103B030BD102002400C200240014B802250
:2009E0001A60704710200240034B044A1A6002F188321A60704700BF04200240230167456B
:200A00000728C8BF08380F23800003FA00F0C04370470000024B188800F50030800270473C
:200A2000E0F7FF1F044B1B88812B34BF4FF480604FF40060704700BFE0F7FF1F0D4A002385
:200A40000221137053709370D370117153710A4A0A4913600A4A13800A4A11600A4A01F591
:200A600088411160094A03211370094A1170094A137070471D0B0020180B0020000C00202A
:200A8000160B0020C4020020C00200201C0B0020D0020020230B002008B50E4B0E481979C8
:200AA0000022C9B20129026008D1022119711A70FFF724FFBDE80840FFF7DABC11F0FD0F5E
:200AC00006D0022119711A70BDE80840FFF73CBF08BD00BF1D0B0020180B002020B9034BF5
:200AE00001221B681A8270470148704704030020210B002020B9034B06221B681A82704765
:200B000001487047040300201D0B0020064B1B6830B9DA88598A511A1982044B1A807047BE
:200B20005B8A03481844704704030020160B002014030020084B30B91B68084A11885A8A45
:200B40008A1A1A8270470649064A1B68126808685B8A10441844704704030020160B0020DE
:200B6000C4020020180B002070B5124B124E1B783468022B04F100640CBF04F5A04404F514
:200B800000542046FFF7EAFE00250C4B1A8892B2954206DA0A4B6019E958FFF7F9FE04356F
:200BA000F3E731681A8892B20A44326000221A8070BD00BF1C0B0020180B0020160B002089
:200BC000140300202DE9F0418149824C0120087023790022DBB2022B22705AD108707E49F2
:200BE0000968487801282AD1C888002800F0C5807A48097B026001294FF0030222710BD06F
:200C000002291AD1764B1A70764A774B1A60FFF7E1FDFFF7E9FE0BE07449734A1160704A36
:200C20001370FFF7D7FDFFF7DFFE6E48FFF796FE44F24D20FFF7F2FDC2E00A2362E0022891
:200C400021D109232371CA88694B1A801888694A80B210801A884B8892B25A435F4B1A60B3
:200C60000B7B012B03D0022B09D15E4A00E05F4A5D4B1A60FFF7CEFE5F4B1860A0E00A2304
:200C8000237103239BE006283CD0032819D005283CE0032B0BD1504A12685278032A04D19E
:200CA00005232371FFF760FF8AE0052A2EE0042B09D152490878022803D1032362700B70E7
:200CC000052323717CE0052B14D1434B1A685378012B08D1D3880BB10323F2E70623237134
:200CE000FFF77CFE6CE0062B4DD0032B4BD0052B62D148E0062B0BD137490968497803292B
:200D000003D10823237122705AE0052954D1D8E7072BF6D0082BD4D0092B3CD12E4B1A6857
:200D20005378022B2DD1D08838B3314952880B882D4D9BB25343294A2F4E13602F68D2F872
:200D40000080B1F800C0474433681FFA8CFC67449F42284B03D80A8892B21A8019E0366802
:200D60002D681168721B521A92B21A801A8892B2824208D300221A8005E00A23237109237B
:200D80001DE0062B01D102239BE7032B01D0052B12D1092395E70A2B0ED10F4B1B685B782E
:200DA000032B01D10A238CE7052BFBD0042B03D102232371002302E00A2323710F23237051
:200DC0002078D0F1010038BF0020BDE8F08100BF230B00201D0B002004030020180B0020CD
:200DE0001C0B002000200008C402002000500008140B0020160B0020C0020020D0020020F2
:200E0000014B1878704700BF230B002000BFFDE7800000F1804000F5B8400368CA0623F41F
:200E2000E04323F040039BB248BF83F010038A0648BF83F0200303607047800000F18040E7
:200E400000F5B840036823F4804323F070039BB283F4405303607047800000F1804000F543
:200E6000B840036823F4E24323F070031B041B0C03607047800000F1804000F5B840036864
:200E80005B0406D5026848F68F73134043F4804303607047800000F1804000F5B84003687E
:200EA0005B0606D5026848F68F73134043F0400303607047064B1B689BB203EBC00000F1A9
:200EC000005000F540504000006880B2704700BF505C0040054B1B689BB203EBC000044BE4
:200EE00003445B00186880B2704700BF505C004004300020044B1B689BB203EBC000034BCD
:200F000003445B0019607047505C0040023000200D4B3E291B689BB203EBC0000B4B0344E7
:200F20004FEA430209D94B09C80604BF03F1FF339BB29B0243F4004304E04B08C90748BFD4
:200F400001339B0213607047505C00400630002070B54C4A4C4B116888B20C04188040F176
:200F6000908047F6FF7111601A88484C02F00F022270002A5FD1464C464D2268464E02F4E5
:200F800040522A80226802F030023280226822F4804222F0700292B282F4005222602268B7
:200FA00022F4E04222F0400292B282F0200222601B88D80602D52368190607D5226848F6A5
:200FC0000F731340236000F061FC12E01A0507D5226840F68F731340236000F069FA08E0AC
:200FE0001804B6D5226840F68F731340236000F0CDFB23682A8823F4804323F070039BB210
:20100000D10448BF83F480539504214A48BF83F4005313601368318823F4E04323F040039E
:201020009BB2CC0648BF83F01003880648BF83F02003136070BD930003F1804303F5B843FC
:201040001D68290409D5186840F68F7101401960124B013A53F8223098472B067FF579AFAF
:20106000217848F60F728B0003F1804303F5B8431868013902401A60094B53F8213098479E
:2010800067E770BD445C0040CC020020E0020020005C0040D2020020D4020020500000200F
:2010A0003400002008B5074A074B0849136002221A72074B074A1360074A1B6811609847CE
:2010C00008BD00BF04030020E40200206C00002000000020DC0200200003002010B5064C7B
:2010E00018B9236801221A8210BD044B1B681B68984720680A3010BD0403002000030020FB
:2011000010B5064C18B9236801221A8210BD044B1B689B68984720680C3010BD0403002064
:201120000003002010B5204B18B91B6802221A8210BD1E4A1968002010800C78134614F001
:201140007F040DD14A7A910644BF0221197012F0400F1A7814BF22F0010242F0010214E030
:20116000012C1FD0022C1ED1097901F00F02920002F1804202F5B84211F0800F126806D09A
:2011800002F03002102A07D101221A7004E002F44052B2F5805FF6E7054B1B681B69984767
:2011A000024810BD104610BD040300200A03002000030020234A2DE9F84314689046238AC1
:2011C000267A214FA3B9042E12D120490A78012A0AD11F4A10681F4A80B202445200136016
:2011E00030223A800B7027E010233B80072623E0A58AAB428CBF022604269D4228BF1D4661
:201200002846A369984781460020FFF753FE2A460146484600F068FB29460020FFF76AFEC2
:20122000238A4FF440525B1B2382638A1D4430233B80094B65821A80D8F800301E72BDE8AB
:20124000F88300BF04030020D4020020240B0020505C004002300020D202002010B50A4B9C
:201260000A491B6849789A7891420AD3D97841B99C8834B99A72064B1B685B6898472046D1
:2012800010BD022010BD00BF04030020900000200003002038B50E4A0E4C1268236892693A
:2012A00018799978904723689A7A7AB170B95A7962B9DD7855B9084B1B68DB6898472368EE
:2012C00028461A79DA729A781A7338BD022038BDDC020020040300200003002038B52F4B67
:2012E0001B68187810F07F0004D15A7A22F020025A7238BD02284ED15A88002A4CD15A7979
:20130000002A49D11A79264D22F08000840004F1804101F5B84109682D7812F0800F14BF4E
:2013200001F0300101F44051A84234D2002932D09B7A83B304F1804404F5B844120623684E
:201340000CD503F03003102B1FD1C4B22046FFF7A1FD20463021FFF75BFD16E003F4405366
:20136000B3F5805F11D128B90E4B93F83010FFF7CFFD01E0FFF77EFD236823F4804323F073
:2013800070039BB283F440532360074B1B685B699847002038BD022038BD00BF0403002076
:2013A00090000020000000200003002038B51D4B1D4D19682D780A7922F08004A30003F1A5
:2013C000804000F5B840006812F0800F14BF00F0300000F44050AC4222D24C8804BBF8B1D2
:2013E000897AE9B103F1804303F5B84312F0800F1A6807D022F4E04222F0400292B282F07A
:20140000100206E022F4804222F0700292B282F480521A60054B1B689B699847002038BDA7
:20142000022038BD04030020900000200003002008B5064B1B685A7A42F020025A72044BC7
:201440001B68DB699847002008BD00BF0403002000030020054B1A68538A18B98988CB1A82
:201460001382704708681844704700BF0403002008B50B4B002093F83010FFF749FD094B29
:201480001B68187A082806D1074B4FF480521A80064B10221A80B0F109035842584108BD6D
:2014A0000000002004030020D2020020D402002073B5964E964B3268964D92B213445B009B
:2014C0001A682B68197A09290FD092B2520002F1804202F5C0421178197051785970918852
:2014E0005980118999809289DA8001221A72DA885C78002A61D11A7812F07F023AD1092C55
:2015000002D1FFF7ABFE44E0052C0FD193F90220002A01DA08234DE0DA78002AFAD19A88B0
:20152000002AF7D19B7A002B37D0F3E7032C13D19A78012A07D0784B20461B685B69984722
:20154000032828D135E09A88002AF4D15B7A9806F1D5FFF76DFF1CE0012CECD19A78012A83
:14156000E9D19A88002AE6D15B7A9906E3D5FFF7B5FE0EE0F7
:00000001FF
