:020000040800F2
:100000000050002075290008AD280008AF2800081E
:10001000B1280008B3280008B52800080000000037
:10002000000000000000000000000000B7280008E9
:10003000B928000800000000BB280008BD280008FF
:10004000BD290008BD290008BD290008BD290008F8
:10005000BD290008BD290008BD290008BD290008E8
:10006000BD290008BD290008BD290008BD290008D8
:10007000BD290008BD290008BD290008BD290008C8
:10008000BD290008BD290008BD290008BD290008B8
:10009000BD290008BD290008BD290008BD290008A8
:1000A000BD290008BD290008BD290008BD29000898
:1000B000BD290008BD290008BD290008BD29000888
:1000C000BD290008BD290008BD290008BD29000878
:1000D000BD290008BD290008BD290008BD29000868
:1000E000BD290008BD290008BD2900080000000046
:1000F0000000000000000000000000000000000000
:0C01000000000000000000005FF808F1A3
:1001100010B5054C237833B9044B13B10448AFF341
:1001200000800123237010BDDC01002000000000CE
:10013000A854000808B5034B1BB103490348AFF3AB
:10014000008008BD00000000E0010020A854000865
:10015000034613F8012B002AFBD1181A0138704707
:1001600081F0004102E000BF83F0004330B54FEA68
:1001700041044FEA430594EA050F08BF90EA020FD5
:100180001FBF54EA000C55EA020C7FEA645C7FEA68
:10019000655C00F0E2804FEA5454D4EB5555B8BF8B
:1001A0006D420CDD2C4480EA020281EA030382EAFC
:1001B000000083EA010180EA020281EA0303362D8E
:1001C00088BF30BD11F0004F4FEA01314FF4801C61
:1001D0004CEA113102D0404261EB410113F0004F73
:1001E0004FEA03334CEA133302D0524263EB43032A
:1001F00094EA050F00F0A780A4F10104D5F1200EC8
:100200000DDB02FA0EFC22FA05F2801841F1000122
:1002100003FA0EF2801843FA05F359410EE0A5F1F6
:1002200020050EF1200E012A03FA0EFC28BF4CF027
:10023000020C43FA05F3C01851EBE37101F00045DD
:1002400007D54FF0000EDCF1000C7EEB00006EEBEA
:100250000101B1F5801F1BD3B1F5001F0CD3490874
:100260005FEA30004FEA3C0C04F101044FEA4452CB
:1002700012F5800F80F09A80BCF1004F08BF5FEA52
:10028000500C50F1000041EB045141EA050130BD32
:100290005FEA4C0C404141EB010111F4801FA4F1D5
:1002A0000104E9D191F0000F04BF01460020B1FA2A
:1002B00081F308BF2033A3F10B03B3F120020CDA62
:1002C0000C3208DD02F1140CC2F10C0201FA0CF040
:1002D00021FA02F10CE002F11402D8BFC2F1200CA5
:1002E00001FA02F120FA0CFCDCBF41EA0C0190405B
:1002F000E41AA2BF01EB0451294330BD6FEA0404A4
:100300001F3C1CDA0C340EDC04F11404C4F120028E
:1003100020FA04F001FA02F340EA030021FA04F3A0
:1003200045EA030130BDC4F10C04C4F1200220FAF7
:1003300002F001FA04F340EA0300294630BD21FA35
:1003400004F0294630BD94F0000F83F4801306BFFB
:1003500081F480110134013D4EE77FEA645C18BFEF
:100360007FEA655C29D094EA050F08BF90EA020F86
:1003700005D054EA000C04BF1946104630BD91EA7E
:10038000030F1EBF0021002030BD5FEA545C05D181
:100390004000494128BF41F0004130BD14F58004C0
:1003A0003CBF01F5801130BD01F0004545F0FE4134
:1003B00041F470014FF0000030BD7FEA645C1ABF69
:1003C000194610467FEA655C1CBF0B46024650EAA0
:1003D000013406BF52EA033591EA030F41F40021CC
:1003E00030BD00BF90F0000F04BF0021704730B552
:1003F0004FF4806404F132044FF000054FF0000127
:1004000050E700BF90F0000F04BF0021704730B5E7
:100410004FF4806404F1320410F0004548BF4042BC
:100420004FF000013EE700BF42004FEAE2014FEA11
:1004300031014FEA02701FBF12F07F4393F07F4FEC
:1004400081F06051704732F07F4208BF704793F0EF
:100450007F4F04BF41F40021704730B54FF4607402
:1004600001F0004521F000411CE700BF50EA010205
:1004700008BF704730B54FF000050AE050EA0102AE
:1004800008BF704730B511F0004502D5404261EB1E
:1004900041014FF4806404F132045FEA915C3FF45F
:1004A000D8AE4FF003025FEADC0C18BF03325FEAFC
:1004B000DC0C18BF033202EBDC02C2F1200300FAAD
:1004C00003FC20FA02F001FA03FE40EA0E0021FAD2
:1004D00002F11444BDE600BF70B54FF0FF0C4CF4C0
:1004E000E06C1CEA11541DBF1CEA135594EA0C0F72
:1004F00095EA0C0F00F0DEF82C4481EA030621EAAD
:100500004C5123EA4C5350EA013518BF52EA0335E7
:1005100041F4801143F4801338D0A0FB02CE4FF099
:100520000005E1FB02E506F00042E0FB03E54FF0C9
:100530000006E1FB03569CF0000F18BF4EF0010EC1
:10054000A4F1FF04B6F5007F64F5407404D25FEABD
:100550004E0E6D4146EB060642EAC62141EA555170
:100560004FEAC52040EA5E504FEACE2EB4F1FD0CB2
:1005700088BFBCF5E06F1ED8BEF1004F08BF5FEA30
:10058000500E50F1000041EB045170BD06F00046E2
:1005900046EA010140EA020081EA0301B4EB5C048F
:1005A000C2BFD4EB0C0541EA045170BD41F4801187
:1005B0004FF0000E013C00F3AB8014F1360FDEBFAC
:1005C000002001F0004170BDC4F10004203C35DA88
:1005D0000C341BDC04F11404C4F1200500FA05F30B
:1005E00020FA04F001FA05F240EA020001F00042AC
:1005F00021F0004110EBD37021FA04F642EB060122
:100600005EEA430E08BF20EAD37070BDC4F10C044B
:10061000C4F1200500FA04F320FA05F001FA04F20F
:1006200040EA020001F0004110EBD37041F10001FB
:100630005EEA430E08BF20EAD37070BDC4F1200506
:1006400000FA05F24EEA020E20FA04F301FA05F26E
:1006500043EA020321FA04F001F0004121FA04F216
:1006600020EA020000EBD3705EEA430E08BF20EAE6
:10067000D37070BD94F0000F0FD101F00046400020
:1006800041EB010111F4801F08BF013CF7D041EAA2
:10069000060195F0000F18BF704703F000465200A6
:1006A00043EB030313F4801F08BF013DF7D043EA77
:1006B0000603704794EA0C0F0CEA135518BF95EA2D
:1006C0000C0F0CD050EA410618BF52EA4306D1D1B4
:1006D00081EA030101F000414FF0000070BD50EAD3
:1006E000410606BF1046194652EA430619D094EA5D
:1006F0000C0F02D150EA013613D195EA0C0F05D147
:1007000052EA03361CBF104619460AD181EA03019A
:1007100001F0004141F0FE4141F470014FF0000052
:1007200070BD41F0FE4141F4780170BD70B54FF0ED
:10073000FF0C4CF4E06C1CEA11541DBF1CEA13556D
:1007400094EA0C0F95EA0C0F00F0A7F8A4EB05044F
:1007500081EA030E52EA03354FEA013100F0888046
:100760004FEA03334FF0805545EA131343EA12630F
:100770004FEA022245EA111545EA10654FEA0026C4
:100780000EF000419D4208BF964244F1FD0404F57D
:10079000407402D25B084FEA3202B61A65EB0305D9
:1007A0005B084FEA32024FF480104FF4002CB6EB96
:1007B000020E75EB030E22BFB61A754640EA0C0016
:1007C0005B084FEA3202B6EB020E75EB030E22BF56
:1007D000B61A754640EA5C005B084FEA3202B6EB97
:1007E000020E75EB030E22BFB61A754640EA9C0056
:1007F0005B084FEA3202B6EB020E75EB030E22BF26
:10080000B61A754640EADC0055EA060E18D04FEAE3
:10081000051545EA16754FEA06164FEAC30343EA83
:1008200052734FEAC2025FEA1C1CC0D111F4801F50
:100830000BD141EA00014FF000004FF0004CB6E749
:1008400011F4801F04BF01430020B4F1FD0C88BFE8
:10085000BCF5E06F3FF6AFAEB5EB030C04BFB6EBF3
:10086000020C5FEA500C50F1000041EB045170BDE6
:100870000EF0004E4EEA113114EB5C04C2BFD4EB13
:100880000C0541EA045170BD41F480114FF0000E97
:10089000013C90E645EA060E8DE60CEA135594EA13
:1008A0000C0F08BF95EA0C0F3FF43BAF94EA0C0F16
:1008B0000AD150EA01347FF434AF95EA0C0F7FF48B
:1008C00025AF104619462CE795EA0C0F06D152EADF
:1008D00003353FF4FDAE1046194622E750EA4106C3
:1008E00018BF52EA43067FF4C5AE50EA41047FF4D4
:1008F0000DAF52EA43057FF4EBAE12E74FF0FF3C39
:1009000006E000BF4FF0010C02E000BF4FF0010C09
:100910004DF804CD4FEA410C7FEA6C5C4FEA430C82
:1009200018BF7FEA6C5C1BD001B050EA410C0CBFD1
:1009300052EA430C91EA030F02BF90EA020F002033
:10094000704710F1000F91EA030F58BF994208BF9A
:1009500090422CBFD8176FEAE37040F00100704757
:100960004FEA410C7FEA6C5C02D150EA013C07D1AE
:100970004FEA430C7FEA6C5CD6D152EA033CD3D0F9
:100980005DF8040B704700BF8446104662468C46F3
:100990001946634600E000BF01B5FFF7B7FF002826
:1009A00048BF10F1000F01BD4DF808EDFFF7F4FF4F
:1009B0000CBF012000205DF808FB00BF4DF808EDDA
:1009C000FFF7EAFF34BF012000205DF808FB00BFFD
:1009D0004DF808EDFFF7E0FF94BF012000205DF81F
:1009E00008FB00BF4DF808EDFFF7CEFF94BF0120D4
:1009F00000205DF808FB00BF4DF808EDFFF7C4FFCD
:100A000034BF012000205DF808FB00BF4FEA410C15
:100A10007FEA6C5C02D150EA013C0AD14FEA430CF8
:100A20007FEA6C5C02D152EA033C02D14FF0000035
:100A300070474FF0010070474FEA410212F5001273
:100A400015D211D56FF47873B3EB625212D94FEA15
:100A5000C12343F0004343EA505311F0004F23FAFF
:100A600002F018BF404270474FF00000704750EA54
:100A7000013005D111F0004008BF6FF00040704711
:100A80004FF00000704700BF38B50E4B0546187890
:100A90004FF47A73B3FBF0F30B4A1068B0FBF3F03A
:100AA00000F0B2F9044658B90F2D09D8024629467C
:100AB0004FF0FF3000F074F92046044B1D6038BD44
:100AC0000120FCE7000000200800002004000020B6
:100AD000074A08B51368032043F01003136000F0C1
:100AE0004DF90020FFF7D0FF01F0C0FD002008BD48
:100AF00000200240034A044B11681B780B4413602A
:100B0000704700BF0402002000000020014B18685D
:100B1000704700BF0402002038B50446FFF7F6FF17
:100B20000546631C1EBF044B1B78E418FFF7EEFF5D
:100B3000401BA042FAD338BD00000020002373B54B
:100B4000019390F82430012B6DD001234D6880F87B
:100B50002430062D026805EB85030C6823D81F2678
:100B6000556B053B9E4025EA060504FA03F32B432B
:100B70005363092C8B6804EB44054FF007012AD915
:100B8000D6681E3DA94026EA0101AB400B43D36065
:100B9000A4F11003012B26D90023002280F8242081
:100BA000184602B070BD0C2D4FF01F0509D8166B0A
:100BB000233B9D4026EA050504FA03F32B43136308
:100BC000D7E7D66A413B9D4026EA050504FA03F3C0
:100BD0002B43D362CDE71669A94026EA0101AB4059
:100BE0000B431361D4E7114B9A4216D193681B0251
:100BF000D2D49368102C43F400039360CCD10C4BF7
:100C00000C4A1B68B3FBF2F20A2353430193019B86
:100C1000002BC1D0019B013BF8E7836A43F020031E
:100C200083620123B9E70223BAE700BF0024014031
:100C30000800002040420F0038B5036804469A6857
:100C4000D20701D4002038BD9A6822F001029A60D0
:100C5000FFF75CFF054623689B68DB07F2D5FFF7CB
:100C600055FF401B0228F6D9A36A012043F0100368
:100C7000A362E36A43F00103E362E4E770B504466C
:100C8000002870D0836A23B9C36280F8243001F051
:100C90000FFD2046FFF7D0FFA36A13F0100FA36AE1
:100CA00063D1002861D1E16923F48853626823F09D
:100CB000020343F002030A43A168A362237BB1F558
:100CC000807F42EA430237D0012914BF06464FF421
:100CD0008076257D012D06D183BBA369013B46EAC1
:100CE000433545F400662368B1F5807F5D6825F4DF
:100CF000694545EA06055D609E681E4D05EA0605E4
:100D000045EA02059D6001D0012920D12169013900
:100D10000905DD6A25F470052943D9629968164BE7
:100D20000B409A4215D10023E362A36A23F0030328
:100D300043F00103A36270BD0E46CAE7A36A43F005
:100D40002003A362E36A43F00103E362CBE70021DF
:100D5000DFE7A36A23F0120343F01003A362E36A00
:100D600043F00103E3620120E5E743F01003A362CF
:100D7000F9E700BFFDF7E1FFFE0E1FFF074A000283
:100D8000D36800F4E06023F4E0631B041B0C43F021
:100D9000BF6343F400330343D360704700ED00E0CA
:100DA000174B70B5DC684FF0FF36C4F30224C4F172
:100DB0000705042D04F1040328BF0425062B98BF62
:100DC000002406FA05F388BF033C21EA0303A3408D
:100DD00006FA04F422EA0404002843EA0403A8BF44
:100DE00000F160404FEA0313B8BF064ADBB2ABBF65
:100DF00000F5614000F00F0080F80033135470BD1F
:100E000000ED00E014ED00E00138B0F1807F0AD27F
:100E1000F021064B064A586082F823100020072272
:100E200098601A6070470120704700BF10E000E032
:100E300000ED00E02DE9F74F00242646654BDFF872
:100E4000A4C1DFF8A4E10A6832FA06F502D103B0C2
:100E5000BDE8F08F4FF0010808FA06F802EA080230
:100E600090457ED14D68122D00F0A98000F282805D
:100E7000022D00F0A18076D8002D00F08880012D91
:100E800000F098804FF00F09FF2A93BF824606F1C9
:100E90008045083DD0F800B092BFB500D0F804B04E
:100EA000AD0009FA05F82BEA080804FA05F588BF31
:100EB00000F1040A48EA0505CAF80050D1F804A078
:100EC0001AF0805F4DD0444F26F00308BD6908F149
:100ED000804845F00105BD61BD6908F5803805F021
:100EE0000105019506F0030B019D4FEA8B0BD8F825
:100EF000085009FA0BF925EA0909384DA84263D0D0
:100F000005F58065A84261D005F58065A8425FD0EF
:100F100005F58065A8420CBF0325042505FA0BF5ED
:100F200045EA0905C8F808501D681AF4803F14BF47
:100F3000154395431D605D681AF4003F14BF1543C7
:100F400095435D609D681AF4801F14BF1543954357
:100F50009D60DD681AF4001F14BF2A4325EA0202CF
:100F6000DA6001366FE7032D22D0112D8AD1CC68CB
:100F7000043487E71A4FBD4209D012D8DFF86C90CD
:100F80004D4504D009F580394D457FF47BAF8C6821
:100F9000C4B1012C0CBFC0F81080C0F81480082424
:100FA00070E76545F3D07545F1D0DFF84490EBE785
:100FB000002467E7CC6865E7CC68083462E7CC6852
:100FC0000C345FE704245DE70025A7E70125A5E7CA
:100FD0000225A3E700040140001002400008014080
:100FE000000021100000311000003210000011102C
:100FF000000022108368194214BF012000207047AE
:101000000AB1016170470904FBE7000070B50446AE
:1010100008B9012070BD90F83D3003F0FF021BB904
:1010200080F83C2001F072FB2423226884F83D30D4
:10103000136823F00103136000F000FB6368414A6A
:1010400093424DD8404A9042E3D940492268B0FBD0
:10105000F1F1556825F03F050D435560156A25F0FF
:101060003F05013129431162D169364D21F44F41C9
:10107000AB4221F0FF0100F1FF3048D85B00B0FB2C
:10108000F3F0431CC3F30B03042B38BF04230B43BF
:10109000D3611168D4E9073021F0C00103430B4349
:1010A00013609168D4E9030321F40341034321F061
:1010B000FF010B439360D168D4E9053021F0FF01B3
:1010C00003430B43D3601368002043F00103136014
:1010D0002023206484F83D30206384F83E0099E7A3
:1010E0001B4A904295D9194E4FF49671B0FBF6F613
:1010F00022687143556825F03F0535434FF47A76F1
:101100005560156AB1FBF6F125F03F05A9E7A56822
:1011100055B903EB4303B0FBF3F0431CC3F30B03DC
:101120006BB143F40043B2E719256B43B0FBF3F016
:10113000431CC3F30B0313B143F44043A7E701235C
:10114000A5E700BFA08601007F841E0040420F007B
:10115000FF083D002DE9F341054608B901203CE0B8
:101160000368DB0710D42B689F075DD42B68190731
:1011700000F194802B685A0700F1BE80E8690028CE
:1011800040F02C81002028E08F4C636803F00C03B2
:10119000042B07D0636803F00C03082B09D16368A4
:1011A000DE0306D523689C03DDD56B68002BDAD1FE
:1011B000D4E76B68B3F5803F12D1236843F48033E2
:1011C0002360FFF7A3FC064623689803CBD4FFF700
:1011D0009DFC801B6428F7D9032002B0BDE8F08194
:1011E0009BB9236823F480332360236823F480238E
:1011F0002360FFF78BFC064623689903B3D5FFF7FE
:1012000085FC801B6428F7D9E6E7B3F5A02F236897
:1012100003D143F480232360CFE723F4803323609A
:10122000236823F48023CBE7674C636813F00C0F2B
:1012300007D0636803F00C03082B10D16368DA034E
:101240000DD423689B0702D52B69012B86D1236817
:101250006A6923F0F80343EAC203236086E72A6938
:101260005A4B6AB101221A60FFF750FC0646236808
:101270009F07ECD4FFF74AFC801B0228F7D9ABE7A5
:101280001A60FFF743FC0646236898077FF56EAFA8
:10129000FFF73CFC801B0228F6D99DE7AA694A4C5F
:1012A0004B4BDAB101221A60FFF730FC0646636A45
:1012B0009B070DD54FF4FA52464B1B68B3FBF2F374
:1012C000019300BF019B5A1E0192002BF9D151E7F7
:1012D000FFF71CFC801B0228E9D97DE71A60FFF7A5
:1012E00015FC0646636A9F077FF544AFFFF70EFCC7
:1012F000801B0228F6D96FE7334CE369D80024D469
:101300000127E36943F08053E361E36903F080530D
:101310000093009B304E3368D90518D5EB68012B3C
:1013200026D1236A43F001032362FFF7EFFB41F26A
:1013300088368046236A9B073FD5002F3FF41EAFB7
:10134000E36923F08053E36118E70027E2E733689D
:1013500043F480733360FFF7D9FB80463368DA05C6
:10136000DCD4FFF7D3FBA0EB08006428F6D933E701
:10137000ABB9236A41F2883823F001032362236A60
:1013800023F004032362FFF7C1FB0646236A980794
:10139000D3D5FFF7BBFB801B4045F7D91CE7052BD6
:1013A000236A03D143F004032362BAE723F0010365
:1013B0002362236A23F00403B6E7FFF7A7FBA0EB41
:1013C0000800B042B6D907E70010024000004242D0
:1013D0008004424208000020007000402A4B5A68F6
:1013E0001C4602F00C02082A3DD00023274E02289A
:1013F00033602BD1FFF78AFB0746236899011FD47E
:101400002B6AB3F5803F05D16268A96822F40032E7
:101410000A436260696A62680B4322F474121343E0
:10142000636001233360FFF771FB054623689A016F
:101430003FF5A8AEFFF76AFB401B0228F6D9CBE6C2
:10144000FFF764FBC01B0228D7D9C5E6FFF75EFB98
:10145000054623689B017FF595AEFFF757FB401BC0
:101460000228F6D9B8E601283FF4B7AE58682B6ACF
:1014700000F480329A427FF471AE6B6A00F470100F
:10148000C01A18BF0120A8E60010024060004242C6
:1014900030B5184B87B002AC03F11005224618682E
:1014A0005968083303C2AB421446F7D140F2012316
:1014B0001149ADF804304B6803F00C02082A17D12B
:1014C000C3F3834206A80244DB0312F8102C0CD5A8
:1014D0004B680A48C3F34043504306AA134413F829
:1014E000143CB0FBF3F007B030BD05485043FAE7B9
:1014F0000248F8E7C05400080010024000127A00C9
:1015000000093D002DE9F0410D46044610B90120C7
:10151000BDE8F081444A136803F007038B4228D3E7
:1015200021688E0730D4CA0743D43F4A136803F0BA
:101530000703AB4265D822683C4D12F0040F6CD112
:10154000130706D56B68226923F4605343EAC2038C
:101550006B60FFF79DFF6B68354AC3F30313D35CE1
:10156000D840344B1860344B1868FFF78DFA0020D0
:10157000CEE7136823F007030B431360136803F0EF
:1015800007038B42C3D1CBE7284B11F0040F1EBFDA
:101590005A6842F4E0625A60080742BF5A6842F44F
:1015A00060525A605A68A06822F0F00202435A6002
:1015B000B9E762681D4E012A33681AD113F4003F5F
:1015C000A5D0736841F2883823F003031343736096
:1015D000FFF79CFA07467368626803F00C03B3EBED
:1015E000820FA2D0FFF792FAC01B4045F3D9032027
:1015F0008EE7022A02D113F0007FE1E713F0020F19
:10160000DEE7136823F007032B431360136803F02E
:101610000703AB427FF47BAF8DE76B68E16823F48F
:10162000E0630B436B608BE7002002400010024038
:10163000F85500080800002004000020044B054A6B
:101640005B68C3F30223D35C034A1068D840704739
:10165000001002400856000808000020044B054A0C
:101660005B68C3F3C223D35C034A1068D840704759
:1016700000100240085600080800002003682DE909
:10168000F341D907054620D5354CE369DA0032D459
:101690000127E36943F08053E361E36903F080537A
:1016A0000193019B2F4E3368DB0526D5236A13F483
:1016B000407336D1236A6A6823F44073134323626C
:1016C0001FB1E36923F08053E3612868830706D5DF
:1016D000234AA968536823F440430B43536010F036
:1016E00010001BD01E4AE9685368002023F48003D1
:1016F0000B43536012E00027D4E7336843F4807350
:101700003360FFF703FA80463368D805CED4FFF77D
:10171000FDF9A0EB08006428F6D9032002B0BDE86B
:10172000F0816A6802F440729A42C3D001200E4AE6
:10173000236A1060002023F4407110602162D907F1
:10174000B8D5FFF7E3F941F288380646236A9A07CD
:10175000B0D4FFF7DBF9801B4045F7D9DDE700BFC8
:10176000001002400070004040044242F8B50446B8
:101770000E4615461F4621688A6836EA020301D0E4
:1017800000202DE06B1CF7D0FFF7C0F9C01B85428D
:10179000F1D823685A6822F0E0025A606268B2F514
:1017A000827F0AD1A268B2F5004F02D0B2F5806FF5
:1017B00003D11A6822F040021A60A26AB2F5005FF3
:1017C00007D11A6822F400521A601A6842F40052D3
:1017D0001A60012384F851300023032084F850302C
:1017E000F8BD10B513460A4680210446FFF7BEFF38
:1017F00020B10320636D43F02003636510BD10B575
:101800000446002834D00023836290F8513003F05E
:10181000FF021BB980F8502000F0B4FF02232268B9
:1018200084F851301368A16923F040031360D4E9B0
:1018300001300343E06803432069034360690343C5
:10184000E0690343206A0343A06A034301F4007084
:10185000090C034301F0040113605160D3690020B7
:1018600023F40063D3610123606584F8513010BD17
:101870000120FCE72DE9F3411E4690F85030044664
:10188000012B0D46904600F09C80012380F85030DB
:10189000FFF73CF9074694F85100C0B2012840F028
:1018A0008E80002D5ED0B8F1000F5BD003230020A6
:1018B00084F85130A3686065A063A4F83680A087DF
:1018C000E087C4E910002068B3F5004F08BF036843
:1018D000256308BF43F48043A4F8348008BF036045
:1018E0000368E2685B065EBF036843F04003036081
:1018F000B2F5006F63683ED113B1B8F1010F07D1A3
:1019000035F8023BC3602563E38E013B9BB2E3865F
:10191000E38E9BB2A3B93A4631462046FFF761FFFA
:10192000002849D1A36833B901932368DA6801928A
:101930009B680193019B606D003018BF012011E08E
:1019400022689368980705D5236B33F8021BD16092
:101950002363D9E7FFF7DAF8C01BB042D8D3711C74
:10196000D6D00320012384F85130002384F850306E
:1019700002B0BDE8F08113B1B8F1010F08D12B78A6
:101980000373236B01332363E38E013B9BB2E38636
:10199000E38E9BB2002BBED023689A68920703D5D2
:1019A000226B12781A73ECE7FFF7B0F8C01BB04255
:1019B000EED3731CECD0D4E720236365B2E702209A
:1019C000D0E70220D4E72DE9F7431E4690F85030C7
:1019D0000446012B0D4691460A9F00F0E280012348
:1019E00080F85030FFF792F894F851308046DBB21F
:1019F000012B61680AD0B1F5827F40F0D080A068E9
:101A0000002840F0CC80042B40F0C980002D00F06D
:101A1000C480B9F1000F00F0C080002E00F0BD803E
:101A200094F85130C4F83890042B1CBF052384F877
:101A3000513000236365C4E910332368E687E686E6
:101A40001A68A687500658BF1A68256358BF42F027
:101A50004002A68658BF1A60E268B2F5006F58D1FE
:101A600009B1012E07D135F8022BDA60E38E256328
:101A7000013B9BB2E3860125E38E9BB2ABB9E38FBA
:101A80009BB293B9424639462046FFF7AAFE00288A
:101A900040F08180A368002B32D123680190DA687E
:101AA00001929B680193019B2AE022689368990741
:101AB0000DD5E38E9BB253B14DB10025236B33F8A6
:101AC000021BD1602363E38E013B9BB2E3869368E4
:101AD000DB070CD5E38F9BB24BB10125D268A36B1A
:101AE00023F8022BA363E38F013B9BB2E387FFF74D
:101AF0000DF8A0EB08008742BED87E1CBCD00320A6
:101B0000012384F85130002384F8503003B0BDE83D
:101B1000F08309B1012E08D12A781A73236B01339F
:101B20002363E38E013B9BB2E3860125E38E9BB2E8
:101B30001BB9E38F9BB2002BA4D02268936898074F
:101B40000ED5E38E9BB25BB155B10025236B1B789C
:101B50001373236B01332363E38E013B9BB2E38654
:101B600022689368D9070DD5E38F9BB253B1012545
:101B7000D268A36B1A70A36B0133A363E38F013B9D
:101B80009BB2E387FEF7C2FFA0EB08008742CDD8E7
:101B90007B1CCBD0B3E7202363650120B0E7022094
:101BA000AEE70220B2E790F85100704738B505461D
:101BB0000368C1681A69192422F440520A431A6161
:101BC00082680069D9680243686921F4B05121F044
:101BD0000C0102430A43DA605A69A96922F440728F
:101BE0000A435A610D4A934214D1FFF737FD60430F
:101BF0006C686422A400B0FBF4F0B0FBF2F102FBCD
:101C000011031B013233B3FBF2F32C6803EB011316
:101C1000A36038BDFFF712FDE9E700BF00380140BF
:101C2000F8B504460E4617461D4621680B6836EA8D
:101C3000030301D1002014E06B1CF7D095B9236891
:101C40000320DA6822F4D072DA605A6922F00102C5
:101C50005A61202384F8393084F83A30002384F81C
:101C60003830F8BDFEF752FFC01B8542DDD2E6E7F3
:101C700010B5044640B390F8393003F0FF021BB9A9
:101C800080F8382000F0D8FD2423226884F8393009
:101C9000D368204623F40053D360FFF787FF2368FF
:101CA00000201A6922F490421A615A6922F02A022D
:101CB0005A61DA6842F40052DA602023E06384F863
:101CC000393084F83A3010BD0120FCE72DE9F041AD
:101CD0001F4690F839300446202B0D4690464CD1D3
:101CE000002948D0002A46D090F83830012B44D043
:101CF000012380F838300023C363212380F8393072
:101D0000FEF704FF0646A4F82480A4F82680E38C9E
:101D10009BB263B93B46324640212046FFF780FF25
:101D2000A0B9202384F8380084F839300FE0E38C20
:101D30003246013B9BB2E384A3688021B3F5805F08
:101D400020463B460ED1FFF76BFF10B10320BDE8E4
:101D5000F0812B882268C3F308035360236943B9D9
:101D60000235D4E7FFF75CFF0028EFD123682A781B
:101D70005A600135CBE70120E9E70220E7E74B1E77
:101D80005A42018A5A414069FFF73AB910B50446F0
:101D90000121FFF7F4FF218860680122BDE81040AF
:101DA000FFF72EB937B5054602AC04F8011D002136
:101DB000FFF7E5FF4FF47A7301222146A869FFF788
:101DC00059FDA869FFF7EFFE0128FAD103B030BD35
:101DD000F8B50D4606461F46002100681446FFF779
:101DE000CEFF45F080013068FFF7DCFF013F651E44
:101DF0003C44A542306803D10121FFF7C0FFF8BD84
:101E000015F8011FFFF7CEFFF3E7002130B585B0CD
:101E100004AC04F8011D05468DF80E10FFF7AFFF66
:101E20004FF47A73224600930DF10E010123A86945
:101E3000FFF7C9FDA869FFF7B6FE0128FAD19DF8A2
:101E40000F0005B030BDFEF767BE10B50446012196
:101E5000FFF795FF218800226068FFF7D1F8012085
:101E6000FFF7F1FF606801222188FFF7C9F86420BD
:101E7000FFF7E9FF10BD08B50189C068FFF7BAF8A0
:101E8000431E5842584108BD38B504460068FFF764
:101E900089FF2068FFF7B9FF054601212068FFF799
:101EA0006EFF284638BD70B504460E461546002123
:101EB0000068FFF764FF46F080012068FFF772FFBB
:101EC00029462068FFF76EFF01212068FFF757FFC2
:101ED00070BD012BF8B505460F4616461C4616D9AF
:101EE00000210068FFF74BFF39462868FFF75AFFCB
:101EF000013CE4B2771E34442868FFF786FF07F8F8
:101F0000010FA742F8D101212868FFF738FFF8BD7B
:101F1000012B01D9FFF75CBF704710B509220121E1
:101F20000446FFF7C0FF0123637210BD10B50822FD
:101F300001210446FFF7B7FF0023637210BD88221A
:101F40000121FFF7B0BF00002DE9F04104460D4626
:101F500090461F469DF81860FFF7E8FF0F20FFF737
:101F600072FF2046FFF7EBFF334A05EB45052A4495
:101F7000032306212046FFF72BFF304B092113F8DE
:101F800008202046FFF78FFF0B2220461146FFF75F
:101F90008AFF23220C212046FFF785FF284BDD5DB9
:101FA000284B062D9A5D4FEA0212D2B237D1033286
:101FB000D2B21D212046FFF776FF67221E21204660
:101FC000FFF771FF31212046FFF75EFF00F0F802B6
:101FD00042F0050231212046FFF765FF0C22372130
:101FE0002046FFF760FF2046FF221F21FFF75BFF1F
:101FF000204600222021FFF756FF20460C222121F7
:10200000FFF751FF204601224121FFF74CFF00233B
:10201000204684F80A31BDE8F041FFF77EBF023266
:1020200002F0FE021D212046FFF73DFF2A01073284
:10203000D2B21E21D4E700BFD0540008DD540008FE
:10204000E1540008D354000813B5C4798379427968
:1020500001790094FFF778FF02B010BDFF22122132
:10206000FFF721BF70B504460E4621721546FFF7F3
:10207000EBFF84224D212046FFF715FFFF2224218C
:102080002046FFF710FF012240212046FFF70BFFFB
:102090003F2211212046FFF706FF2046FFF7DEFF13
:1020A000324622212046FFF7FEFE0F212046FFF791
:1020B000EBFE0D2102462046FFF7F5FE8D220121A1
:1020C0002046FFF7F0FE002384F80A31182120464D
:1020D000FFF7DAFE430703D503230120637270BDC7
:1020E000013D07D12068FFF7B0FE2046FFF7ACFFA7
:1020F0002846F4E70120FFF7A6FEE7E770B504469F
:102100000068FFF7B8FEF0B104F10A064FF48072E0
:102110000021304600F089FC10212046FFF7B4FE74
:102120000D2102462046FFF7BEFEA37973B9257A3A
:1021300020462B4632460021FFF7CBFE84F80A5199
:102140002046FFF78BFF94F80A0170BD132120464B
:10215000FFF79AFE0546EBE770B504460E4621727E
:102160001546FFF771FF87224D212046FFF79BFEA2
:10217000002224212046FFF796FE412240212046DE
:10218000FFF791FE2046FFF769FFF7221121204655
:10219000FFF789FE324622212046FFF784FE0E21FA
:1021A0002046FFF771FE0D2102462046FFF77BFE19
:1021B00022212046FFF768FE864203D10223012038
:1021C000637270BD013DF3D12068FFF73EFE2046EB
:1021D000FFF73AFF2846F4E770B504461E4613465B
:1021E0000A460021FFF794FE8B2201212046FFF7CB
:1021F0005AFE2068FFF73FFE054660B112212046D7
:10220000FFF742FE2046FFF729FF2046FFF785FE35
:102210000125284670BD013E06D12068FFF715FE56
:102220002046FFF711FFF4E70120FFF70CFEE0E77F
:102230002DE9F8430446894690461F469DF82060E4
:102240009DF824500068FFF7A1FD84F8049084F8FD
:102250000580A771E67125722046BDE8F843FFF7B7
:10226000F3BE70B50E4690F80A41054600F10A012A
:102270002246304600F0CEFB00232046335585F839
:102280000A3170BD10B5142494B0224600210CA868
:1022900000F0CBFB22460DEB0400002100F0C5FB53
:1022A0000021102201A800F0C0FB022401224FF4FB
:1022B0008033CDE90A23CDE911434FF4E0130AA896
:1022C0000E921393FEF746FF0F234FF48062CDE981
:1022D00005340023214605A8CDE907320993FFF70D
:1022E00011F94FF4004301A801940393FFF7C6F9D5
:1022F00014B010BD80B58AB0FEF7EAFBFFF7C2FF4D
:102300001022002106A800F090FBAE4B4FF40051C4
:102310009A69AD4842F010029A619A69002402F06D
:1023200010020292029A9A69012642F020029A61F2
:102330009A69022502F020020392039A9A694027C3
:1023400042F004029A619A69DFF8849202F0040272
:102350000492049A9A6942F008029A619B690022E9
:1023600003F008030593059BFEF74AFE00220221B5
:102370009648FEF745FE00224FF484519448FEF73C
:102380003FFE4FF4005306A98F48CDE90636CDE94C
:102390000845FEF74FFD06A98C48CDE90656CDE964
:1023A0000845FEF747FD4FF4845306A98848CDE958
:1023B0000636CDE90845FEF73DFD06A98448854D62
:1023C000CDE906740894FEF735FD834B28462B6053
:1023D0004FF46023AC60EB612C732C756C602E6144
:1023E000CDE906440894FEF749FC06A92846CDE944
:1023F00006460894FEF7A2FB78487949794BC0E974
:102400000244C0E900134FF48043C0E90644C0E928
:1024100004340462FEF7FAFD4FF48273724D734880
:102420004FF4802CC5E900030823C5E906C30A233D
:102430002846EB62C5E90244C5E90444C5E90844FD
:10244000AC62FFF7DCF94FF4E1336948DFF8F8E1FB
:10245000C0E90244C0E900E30C230461C0E905348B
:10246000C461FFF705FC39465948FEF7C3FD614BCF
:10247000B042186098467CD15F4800F0A1FF224628
:1024800039464846FEF7BCFD4FF480525B4B5C4832
:102490009A6002F1804202F578425A614FF400429C
:1024A0001A6102F1804202F510425A604FF4005264
:1024B0009D61544D1A60C3F80C902B6000F080FFB2
:1024C00003230A220021CDE90032284602230122FB
:1024D000FFF7AEFE4C4800F073FFD8F800304FF421
:1024E000FA62012B4FF010012846484C46D1FFF705
:1024F00033FE474FDFF85491424D2060D8F800304A
:10250000012B3ED1434800F05BFF434E40F6C41020
:10251000FEF702FB414800F053FF32684049414852
:1025200000F056FFDFF828A14FF4FA62C1B2CAF8F2
:1025300000002846FFF710FE014620603A4800F0F0
:10254000CBFE3849394800F0C7FE4FF4FA639AF8D9
:10255000002034492846FFF73FFE336801462060DB
:1025600001333348336000F0B7FE324800F028FFF3
:10257000C4E7314800F024FF324681E7FFF772FDDF
:10258000B7E7384600F01CFF4FF47A70FEF7C4FA44
:10259000484600F015FF2846FFF7B0FD01462060D1
:1025A000264800F099FE2268002A09DDD2B21D49B2
:1025B0002846FFF756FE1B4A2168214800F08CFE92
:1025C0002048D3E7001002400010014000080140FD
:1025D000000C014064020020002401400C02002095
:1025E00000540040A0860100D402002000300140C9
:1025F0002C03002098040020E85400087C040020EC
:10260000035500086C0300201C55000878040020C6
:102610009F55000839550008600200204555000804
:102620005955000894020020625500086E550008B4
:102630007B5500088E550008F6540008C055000868
:10264000CF550008E255000800440040AA55000894
:102650000802002010B51446322392B20248FFF758
:1026600035FB204610BD00BF2C0300200E4B82B06E
:102670009A6942F001029A619A6902F0010200929D
:10268000009ADA6942F08052DA61DB69074A03F0A6
:1026900080530193019B536823F0E06343F0007380
:1026A000536002B0704700BF0010024000000140BC
:1026B00010B5044686B01022002102A800F0B5F93A
:1026C0002268104B9A421BD103F56C439A6902A908
:1026D00042F400729A619A690B4802F40072009207
:1026E000009A9A6942F004029A619B69012203F000
:1026F00004030193019B0323CDE90223FEF79AFB18
:1027000006B010BD002401400008014010B5044689
:1027100086B01022002102A800F087F92268154B2C
:102720009A4224D1144C4FF44072A36902A943F099
:102730000803A361A369114803F008030093009BF9
:102740001223CDE9022303230593FEF773FB0C4A02
:10275000536843F0E06343F002035360E36943F4DA
:102760000013E361E36903F400130193019B06B0D6
:1027700010BD00BF0054004000100240000C01409A
:102780000000014070B51024054688B022460021A3
:102790000DEB040000F049F92A68234B9A4241D11D
:1027A00003F560439A69022642F480529A619A695D
:1027B000032502F480520192019A9A690DEB0401FB
:1027C00042F004029A619A69184802F004020292E7
:1027D000029A9A6942F008029A619B69079503F090
:1027E00008030393039B4FF40043CDE90436FEF73F
:1027F00021FB28230DEB04010D48CDE90436079594
:10280000FEF718FB00230DEB04010948CDE9053361
:102810000494FEF70FFB074A536843F0E06343F06C
:102820000103536008B070BD003001400008014052
:10283000000C01400000014010B5044686B0102293
:10284000002102A800F0F1F82268164B9A4226D126
:1028500003F5E633DA6902A942F40032DA61DA6993
:10286000114802F400320092009A9A6942F0040280
:102870009A619B69042203F004030193019B0223E4
:10288000CDE9022303230593FEF7D4FA08210023A0
:102890000548CDE9021302A90493FEF7CBFA06B06E
:1028A00010BD00BF00440040000801407047FEE733
:1028B000FEE7FEE7FEE7704770477047FEF71AB97C
:1028C00070B50E4615460C46A31B9D4201DC2846FA
:1028D00070BDAFF3008004F8010BF5E708B50A4BB3
:1028E0000246196809B9094919606946186802441D
:1028F0008A4206D900F064F80C2303604FF0FF30E1
:1029000008BD1A60FCE700BFF8010020A004002009
:102910004FF0FF3070474FF4005300204B6070477A
:1029200001207047002070470F4B1A6842F00102E7
:102930001A6059680D4A0A405A601A6822F0847277
:1029400022F480321A601A6822F480221A605A68CF
:1029500022F4FE025A604FF41F029A604FF00062A8
:10296000034B9A60704700BF001002400000FFF860
:1029700000ED00E0002103E00B4B5B5843500431B5
:102980000A480B4B42189A42F6D30A4A02E0002347
:1029900042F8043B084B9A42F9D3FFF7C5FF00F019
:1029A00015F8FFF7A7FC7047D85800080000002072
:1029B000DC010020DC010020A0040020FEE7000074
:1029C000014B1868704700BF0C00002070B500254F
:1029D0000C4E0D4CA41BA410A54209D102F064FDBD
:1029E00000250A4E0A4CA41BA410A54205D170BDB7
:1029F00056F8253098470135EEE756F825309847C8
:102A00000135F2E7D0580008D0580008D058000827
:102A1000D458000810B5431E0A44914200D110BD9D
:102A200011F8014B03F8014FF7E7034602449342C4
:102A300000D1704703F8011BF9E7002B2DE9F0479F
:102A40001E46BBBF03F100431E4600232D2388B062
:102A5000149FDDE9121A27F02007462F1446109D17
:102A60000B7004D0452F00D10135022300E0032371
:102A700007AA049206AACDE902A2CDE900352246B2
:102A8000334600F015FE472F804602D1119BDB072D
:102A900026D5462F08EB050911D198F80030302BC8
:102AA0000AD10022002320463146FDF77DFF18B9E8
:102AB000C5F10105CAF80050DAF800309944002247
:102AC000002320463146FDF76FFF38B93022079BBF
:102AD0004B4505D2591C07911A70F8E7CDF81C90A8
:102AE0004046079B159AA3EB0803136008B0BDE8A6
:102AF000F087F7B50029B4BF2D232B230446B8BFB8
:102B00004942092904F8022B437021DD0DF1070326
:102B10001F460A2691FBF6F506FB1511092D01F15A
:102B2000300103F8011C03F1FF32294609DC303182
:102B3000023B02F8011CBB42224604D3101A03B028
:102B4000F0BD1346E6E713F8012B04F8012BF2E77A
:102B5000302319448370021DC170EFE72DE9F04F57
:102B600091B00C461A9F93461E46054601F0CEFCD6
:102B7000036818460993FDF7EBFA00230E933B68B0
:102B80000A90073323F0070303F1080294F8188032
:102B9000D4F800A03A60D3E90023C4E91223D4E9B1
:102BA000127929F000430B934FF0FF32A64B3846C1
:102BB0000B99FDF72BFF68BB4FF0FF32A24B384655
:102BC0000B99FDF705FF28BB002200233846494634
:102BD000FDF7F4FE10B12D2384F843309B4F9C4B3E
:102BE000B8F1470F98BF1F4603234FF00009236138
:102BF0002AF00403236000965B460FAA214628466C
:102C000000F0E2F9013040F090804FF0FF3011B059
:102C1000BDE8F08F3A464B4638464946FDF7F6FE8A
:102C200010B18C4F8C4BDBE763684AF48062591C0F
:102C30000DA80EA940D1062363604FF0000C0DF1E2
:102C40003303CDE9012363682260CDE903080093D3
:102C50003A464B46CDE9051C2846FFF7EEFE08F044
:102C6000DF03472B074609D10D9BD81C02DB6268A6
:102C7000934247DDA8F102085FFA88F8B8F1650FC2
:102C80000D9924D80139424604F150000D91FFF707
:102C900030FF0E9A81461318012A236102DC226854
:102CA000D10701D5013323619DF83330002BA2D029
:102CB0002D2384F843309EE7B8F1670F00F06E8152
:102CC000B8F1470FB9D1002BB7D10123B4E7B8F160
:102CD000660F19D1002963680CDD216113B92268E0
:102CE000D20702D501330B4423610D9B4FF000093D
:102CF000A365D9E713B92268D00701D50233F3E7FA
:102D00000123F1E74FF06708DDE90D32934205DB5F
:102D100022682361D107E8D50133E5E7002BCCBF5A
:102D20000123C3F102031344DEE723685A0507D4E5
:102D300023693A4659462846B047013029D164E70D
:102D4000B8F1650F40F2D780D4E9120100220023C8
:102D5000FDF72AFE88B30123404A59462846B0476A
:102D600001303FF452AFDDE90D239A4202DB2368C4
:102D7000D8070ED5DDE9092359462846B04701306A
:102D80003FF443AF002704F11A080E9B013BBB42FE
:102D900009DC23689F0700F1FD80E0680F9B9842E3
:102DA000B8BF184633E70123424659462846B04784
:102DB00001303FF42AAF0137E7E70D9B002B2BDCF6
:102DC0000123264A59462846B04701303FF41DAF3B
:102DD0000D9B23B90E9B13B92368D907D9D5DDE91B
:102DE000092359462846B04701303FF40EAF4FF053
:102DF000000804F11A090D9B5B42434501DC0E9B60
:102E000097E701234A4659462846B04701303FF428
:102E1000FCAE08F10108EEE70E9AA36D9A42A8BF36
:102E20001A46002A904607DD134659463A46284678
:102E3000B04701303FF4E9AE04F11A034FF0000A45
:102E400028EAE8780B9315E0FFFFEF7F185600089B
:102E500014560008205600081C5600082456000886
:102E600001230B9A59462846B04701303FF4CDAEB6
:102E70000AF1010AD4F85890A9EB08035345EFDC96
:102E8000DDE90D239A424F4414DB2368DA0711D49D
:102E90000E9B0D99A3EB0902A3EB01099145A8BF75
:102EA0009146B9F1000F0DDC002729EAE97904F118
:102EB0001A0818E0DDE9092359462846B0470130D1
:102EC000E6D1A2E64B463A4659462846B04701307D
:102ED000EAD19AE60123424659462846B0470130D6
:102EE0003FF493AE0137DDE90D239B1AA3EB0903F1
:102EF000BB42EFDC4DE70E9A012A01DCDB0738D537
:102F000001233A4659462846B04701303FF47DAE8A
:102F1000DDE9092359462846B047013007F101078A
:102F20003FF473AED4E912010E9B002203F1FF3887
:102F30000023FDF739FDC0B943463A4659462846B5
:102F4000B04701300DD160E601234246594628467C
:102F5000B04701303FF459AE01370E9B013BBB42F5
:102F6000F2DC4B4604F15002E4E6002704F11A08B3
:102F7000F3E70123E1E70123424659462846B047DB
:102F800001303FF442AE0137E3680F9A9B1ABB420F
:102F9000F1DC02E7002704F11908F5E7002B3FF404
:102FA00094AE4FF0000CCDE9051C0DF13301226009
:102FB000CDE90308CDE9012100933A464B46284666
:102FC000FFF73BFD07464FE62DE9F04791461F46C8
:102FD0008A680B6906469342B8BF1346C9F80030A9
:102FE00091F843200C46DDF8208012B10133C9F876
:102FF00000302368990642BFD9F800300233C9F87F
:103000000030256815F0060507D104F1190AE368B8
:10301000D9F800209B1AAB4229DC94F8433022688F
:10302000003318BF012392062ED404F1430239461F
:103030003046C047013021D02368E56803F006031D
:10304000042B18BF0025D9F800204FF0000908BF55
:10305000AD1AA368226908BF25EAE5759342C4BF8B
:103060009B1AED181A344D451AD1002008E00123AF
:10307000524639463046C047013003D14FF0FF3049
:10308000BDE8F0870135C2E73020E11881F8430040
:103090005A1C94F845102244023382F84310C4E7C6
:1030A0000123224639463046C0470130E6D009F1B7
:1030B0000109D8E72DE9F04301F1430C0C46097EE4
:1030C00085B06E291746064698460C9A00F0B380E4
:1030D00022D8632936D00AD8002900F0B9805829AF
:1030E00000F0838004F1420584F8421032E0642944
:1030F00001D06929F6D120681368050603F104019F
:103100002AD51B681160002B03DA2D225B4284F85C
:1031100043206F480A2239E0732900F09D8008D8C7
:103120006F2920D07029DDD1236843F0200323606C
:1031300003E0752917D07829D4D17823654884F81D
:10314000453055E0136804F14205191D1B681160F4
:1031500084F8423001238CE01B6810F0400F1160AE
:1031600018BF1BB2CFE713682568181D106028062A
:1031700001D51B6802E06806FBD51B886F2914BFC8
:103180000A2208225248002184F843106568002D65
:10319000A560C0F29580216821F004012160002B18
:1031A0003DD1002D40F08E806546082A0BD1236862
:1031B000DB0708D5236962689A42DEBF302305F831
:1031C000013C05F1FF35ACEB05032361CDF8008030
:1031D0003B4603AA21463046FFF7F6FE01304DD1AB
:1031E0004FF0FF3005B0BDE8F083394884F8451052
:1031F000136821681D1D1B6815600A060BD5CA07D8
:1032000044BF41F0200121601BB9226822F0200256
:1032100022601022B7E74D0648BF9BB2EFE7654634
:10322000B3FBF2F102FB1133C35C05F8013D0B4621
:103230000029F5D1B9E713682568181D6169106088
:1032400028061B6801D5196002E06A06FBD51980C3
:10325000002365462361B9E71368191D11601D68D5
:1032600062680021284601F0CBF908B1401B60607C
:1032700063682361002384F84330A7E723692A4663
:1032800039463046C0470130AAD023689B0713D483
:10329000E068039B9842B8BF1846A3E701234A465B
:1032A00039463046C04701309AD00135E368039A69
:1032B0009B1AAB42F2DCEBE7002504F11909F5E7B4
:1032C000002BACD1037804F1420584F842306CE75E
:1032D00026560008375600080FB40A4B13B51C6871
:1032E00024B1A36913B9204601F086F805AB049A0E
:1032F000A1682046019301F09BFE02B0BDE810409A
:1033000004B070470C00002070B50E46054618B199
:1033100083690BB901F070F8AB69AC6813B9284642
:1033200001F06AF8234B9C4217D16C68A3891B07F4
:103330001DD52369DBB1013EA36816F8011F013BCF
:10334000A360E9B9002B2EDA22460A21284600F0B4
:103350005FF8013011D00A2011E0174B9C4201D1D7
:10336000AC68E3E7154B9C4208BFEC68DEE72146FA
:10337000284600F09FF80028DDD04FF0FF3070BDE8
:10338000002B04DAA2699A4206DC0A2904D02368D9
:103390005A1C22601970CFE72246284600F038F800
:1033A0000130C9D1E9E70A2023685A1C226018704D
:1033B000E5E700BF78560008985600085856000800
:1033C000024B01461868FFF79FBF00BF0C000020AA
:1033D0000EB46FF0004100B59CB01DAB029006909A
:1033E000079104910848094953F8042B0591006896
:1033F00002A9019301F0FCFC0022029B1A701CB090
:103400005DF804EB03B070470C0000200802FFFFDA
:10341000F8B50E461446054618B183690BB900F09D
:10342000EBFF214B9C422AD16C68A369A360A3895E
:103430001A072ED5236963B323692068F6B2C01A30
:1034400063693746834204DC2146284600F06AFF60
:1034500028BBA3680130013BA36023685A1C22608B
:103460001E706369834204D0A389DB0719D50A2E35
:1034700017D12146284600F055FF90B10FE00B4BC5
:103480009C4201D1AC68D0E7094B9C4208BFEC6874
:10349000CBE72146284600F00DF80028CCD04FF0AD
:1034A000FF373846F8BD00BF785600089856000828
:1034B00058560008324B70B51D6806460C4625B1BB
:1034C000AB6913B9284600F097FF2E4B9C420FD1F1
:1034D0006C68B4F90C309AB215072CD4D00611D40C
:1034E0000922326043F04003A3814FF0FF303EE0F9
:1034F000254B9C4201D1AC68EBE7244B9C4208BFB2
:10350000EC68E6E7510712D5616B41B104F1440361
:10351000994202D0304601F06BFB00236363A3891C
:1035200023F02403A3810023636023692360A3891C
:1035300043F00803A38123694BB9A38903F42073E3
:10354000B3F5007F03D02146304601F011F8A2897F
:1035500012F001030CD00023A36063695B42A361F6
:10356000236953B9B4F90C3013F08000BAD170BD9F
:10357000920758BF6369A360F2E70020F7E700BF36
:103580000C0000207856000898560008585600088D
:103590002DE9F74F03690C698046A342C0F284808D
:1035A000013C01F1140700F1140657F8245056F8B5
:1035B00024000135B0FBF5F54FEA840C06EB0C0353
:1035C00007EB0C0901939DB34FF0000A3846B6464D
:1035D000D34650F8042B93B205FB03A3120C4FEA19
:1035E000134A05FB02A29BB2ABEB0303DEF800B06B
:1035F0004FEA124A1FFA8BFB5B441FFA82FBDEF88C
:1036000000208145CBEB124202EB23429BB243EAFE
:1036100002434FEA224B4EF8043BDAD256F80C3004
:1036200033B9019B043B9E421A4631D3C8F810407F
:10363000404601F007FA002826DB30464FF0000C28
:10364000013557F8041BD0F800E08BB2ACEB030354
:103650001FFA8EF213440A0CC2EB1E4202EB234205
:103660009BB243EA0243B9454FEA224C40F8043B7F
:10367000E7D256F8242006EB84032AB9043B9E4285
:103680001A460BD3C8F81040284603B0BDE8F08FA7
:103690001268043B002AC9D1013CC4E71268043B0C
:1036A000002AEFD1013CEAE70020EEE7000000002D
:1036B0002DE9F04F16461F46456A95B00446DDF8E1
:1036C0008480CDE902673DB9102000F091FF60626F
:1036D000C0E901550560C560636A196851B15A684F
:1036E000012393404A608B60204600F0CBFF00220C
:1036F000636A1A603B1EAFBF0023012223F0004320
:103700000393ACBFC8F80030C8F80020AE4BDDF81A
:103710000C8033EA08031BD142F20F73209A136026
:10372000029B23B9C8F31300002800F04585229BB3
:1037300053B9A64B21E0A64B06930833229A136097
:10374000069815B0BDE8F08FA04B06930333F5E75C
:10375000DDE902670022002330463946FDF724F9EF
:10376000824660B10123209A1360229B002B00F057
:103770002085984B229A1360013B0693E0E712AB39
:10378000019313AB009332463B46204601F0D2F939
:10379000C8F30A558346002D7DD0B046C7F3130306
:1037A00043F07F5949F44019A5F2FF35CDF840A008
:1037B0000022894B40464946FCF7D6FC7CA3D3E95E
:1037C0000023FCF789FE7CA3D3E90023FCF7CEFCA1
:1037D000064628460F46FCF715FE79A3D3E90023D9
:1037E000FCF77AFE02460B4630463946FCF7BEFC33
:1037F00006460F46FDF720F9002282460023304698
:103800003946FDF7DBF848B15046FCF7FBFD324680
:103810003B46FDF7C9F808B90AF1FF3ABAF1160FAD
:103820005AD8DDE902236D4901EBCA01D1E9000153
:10383000FDF7E2F8002851D000230AF1FF3A0D937A
:10384000129B5D1B6B1E079343BF0023C5F101094B
:1038500007934FF00009BAF1000F41DB079BCDF849
:1038600030A053440793002308931E9B092B00F2BA
:103870008F80052BC4BF043B1E931E9BC8BF002531
:10388000A3F10203D8BF0125032B00F28D80DFE8EE
:1038900003F07B7D2F6FDDE912531D4405F23240AA
:1038A000202813DDC0F14000029B08FA00F805F261
:1038B000124023FA00F048EA0000FCF793FD0123D0
:1038C0008046A1F1F879013D109371E7029BC0F1A8
:1038D000200003FA00F0F0E70123B0E70D90AFE716
:1038E000CAF1000308930023A9EB0A090C93BCE773
:1038F000012309931F9B002B74DD9846049300223B
:10390000666A7260042202F11400984271686ED9EE
:10391000204600F083FE636A30601B68B8F10E0F2A
:10392000069300F2ED80002D00F0EA80DDE902232D
:10393000BAF1000FCDE90E2377DD284A0AF00F0314
:103940004FEA2A1602EBC303F006D3E90023CDE9C0
:103950000A2368D5DDE90E01214B0325D3E90823AD
:10396000FCF7E4FECDE9020106F00F061C4F4FE024
:10397000012309931F9B534403F101080493434619
:10398000012BB8BF0123BAE70023B2E70023F0E719
:103990000125002309951E934FF0FF330022049365
:1039A000984612231F92AAE701230993F4E700BF68
:1039B00061436F63A787D23FB3C8608B288AC63F35
:1039C000FB799F501344D33F0000F07F515600080D
:1039D00048560008255600080000F83FE056000849
:1039E000B85600080123049398461A46DAE70131D5
:1039F0007160520087E7F10708D5DDE90A01D7E9D0
:103A00000023FCF769FDCDE90A010135761008377E
:103A1000002EF0D1DDE90A23DDE90201FCF786FE84
:103A2000CDE902011BE00225A0E700F0A480DDE95A
:103A30000E01CAF10006A04B06F00F0203EBC20311
:103A4000D3E90023FCF748FD02250023CDE902015C
:103A50009A4F3611002E40F08380002BE0D10D9B51
:103A6000002B00F08A80DDE90223CDE90A23DDE99D
:103A70000A010022924BFCF7A1FF00287DD0B8F18B
:103A8000000F7AD0049B002B36DDDDE90A0100220D
:103A90008C4BFCF721FDCDE90201049E0AF1FF37B2
:103AA00001352846FCF7AEFCDDE90223FCF714FDE6
:103AB0000022854BFCF75AFBA1F15075CDE90A01B4
:103AC0000B95002E5CD1DDE9020100227F4BFCF753
:103AD0004BFB0A9A2B46CDE90201FCF78DFF00282B
:103AE00040F08182DDE902010A9A05F10043FCF70A
:103AF00065FF002840F07582DDE90E23CDE9022341
:103B0000139B002BC0F24B81BAF10E0F00F34781DB
:103B1000694B03EBCA03D3E90023CDE904231F9BC0
:103B2000002B80F2D780B8F1000F00F3D38040F073
:103B30005782DDE904010022644BFCF7CDFCDDE98E
:103B40000223FCF74FFF46464746002840F02D82EF
:103B5000069B069A5D1C31230AF1010A137028E2C4
:103B6000F20705D5D7E90023FCF7B6FC01230135A0
:103B7000761008376EE7022571E75746464690E70C
:103B80004D4B03EBC60353E90201099B002B48D0C0
:103B900002460B4600204E49FCF7C8FDDDE90A232A
:103BA000FCF7E2FACDE90A01069DDDE90201FCF726
:103BB00043FF1190FCF726FC02460B46DDE90201AB
:103BC000FCF7D2FA119BCDE90201303305F8013B35
:103BD000DDE90A23FCF7F2FE002863D1DDE90223C8
:103BE00000203749FCF7C0FADDE90A23FCF7E6FEBE
:103BF000002840F0B580069BEB1A9E427FF77CAF11
:103C0000DDE90A0100222F4BFCF766FC0022CDE91A
:103C10000A01DDE902012B4BFCF75EFCCDE9020154
:103C2000C3E7DDE90A23FCF757FC069BCDE90A014F
:103C30009D191E46DDE90201FCF7FEFE1190FCF71E
:103C4000E1FB02460B46DDE90201FCF78DFA119B10
:103C5000CDE90201303306F8013BAE424FF00002DD
:103C600024D1DDE90A011A4BFCF780FA02460B4623
:103C7000DDE90201FCF7C0FE002871D1DDE90A236D
:103C800000201349FCF770FA02460B46DDE90201F9
:103C9000FCF794FE00283FF42FAF15F8013C6A1E94
:103CA000302B01D0BA464AE01546F6E7054BFCF743
:103CB00013FCCDE90201BDE7E0560008B856000844
:103CC0000000F03F0000244000001C4000001440B1
:103CD0000000E03F069DDDE90267DDE90423304690
:103CE0003946FCF723FDFCF7A7FE8146FCF78AFB6B
:103CF000DDE90423FCF7F0FB02460B46304639466B
:103D0000FCF732FA09F1300605F8016B069E02460F
:103D1000AE1BB0450B4635D1FCF728FADDE904238C
:103D200006460F46FCF768FEC8B9DDE904233046B5
:103D30003946FCF739FE10B119F0010F0FD1594681
:103D4000204600F09FFC0023209A2B700AF101030B
:103D50001360229B002B3FF4F3AC1D60F0E4574648
:103D600015F8012C6B1E392A06D1069A9A4207D102
:103D700030231370134601371A7801321A7091E715
:103D80001D46EDE70022994BFCF7A6FB002200231D
:103D900006460F46FCF708FE00289ED0CFE7099A9A
:103DA000002A00F088801E9A012A6DDC109A002AF1
:103DB00066D003F233434D46089E079A01211A4408
:103DC00020469944079200F0FDFC0746002D0BDDCC
:103DD000079B002B08DDAB42A8BF2B46079AA9EB37
:103DE0000309ED1AD31A0793089BEBB1099B002B2B
:103DF00065D08EB139463246204600F081FD5A46E4
:103E000001460746204600F0E6FC59460A90204647
:103E100000F038FC0A9B9B46089B9A1B04D059462D
:103E2000204600F06DFD83460121204600F0CAFCCB
:103E30000C9B0646002B00F0C6811A460146204620
:103E400000F05EFD1E9B0646012B3EDC029B002B14
:103E500037D1039BC3F31303002B34D1039B23F00F
:103E600000431B0D1B052BB1079B09F10109013311
:103E70000793012308930C9B002B28D101202EE0EF
:103E8000129BC3F1360396E7089B08F1FF36B34255
:103E9000B7BF089B9E1BF21A0C9BBFBF08969B18CE
:103EA0000C930026B8F1000FB9BFA9EB0805002359
:103EB0004D46434681E7089E4D46099F86E7089A8E
:103EC000ADE70023D6E7029BD4E7002308933369CC
:103ED00006EB8303186900F027FCC0F12000079B64
:103EE000184410F01F0047D0C0F12003042B3BDD25
:103EF000079BC0F11C008144054403440793B9F1BA
:103F0000000F05DD59464A46204600F047FD83462E
:103F1000079B002B05DD31461A46204600F03EFD8A
:103F200006460D9B53B33146584600F08BFD0028E2
:103F300024DA002359460A22204600F0BAFB099BE6
:103F40000AF1FF3A8346002B00F0448100233946F2
:103F50000A22204600F0ADFB049B0746002B4DDCF7
:103F60001E9B022B4ADD11E0C9D0079A1C331A446C
:103F700099441D441346C1E70346F6E7B8F1000F24
:103F800036DC1E9B022B33DDCDF81080049B63B919
:103F900031460522204600F08CFB01460646584675
:103FA00000F050FD00283FF7D3AD1F9B069D6FEA40
:103FB000030A4FF000093146204600F063FB002F52
:103FC0003FF4BDAEB9F1000F05D0B94503D0494665
:103FD000204600F057FB3946204600F053FBAEE682
:103FE00000263746E1E7BA463746B1E500002440EF
:103FF000099BCDF81080002B00F0F380002D05DD2B
:1040000039462A46204600F0C9FC0746089B002B8B
:104010004CD07968204600F001FB05463A6907F16B
:104020000C01023292000C30FEF7F4FC012229460A
:10403000204600F0B3FCB9460746069B0793029B57
:1040400003F00103089331465846FFF7A1FA4946A9
:10405000054600F13008584600F0F4FC3A4602905C
:104060003146204600F008FDC368024603BB014606
:104070000990584600F0E6FC0346099A114620468E
:10408000099300F0FFFA099BA3B91E9A92B9089A06
:1040900082B9B8F1390F29D0029B002B01DD05F15F
:1040A0003108079B5D1C83F8008084E73846C2E72F
:1040B0000123E3E7029A002A04DB23D11E9A0ABBFC
:1040C000089AFAB9002BECDD59460122204600F08F
:1040D00065FC3146834600F0B5FC002803DCE0D1E6
:1040E00018F0010FDDD0B8F1390FD8D1079B079A2E
:1040F0005D1C3923137015F8013C6A1E392B4DD015
:10410000013352E0079A002B02F1010506DDB8F1F8
:10411000390FEBD008F10108079BC4E7069B049A0E
:10412000EB1A934205F8018C21D0594600230A224C
:10413000204600F0BEFAB94583464FF000034FF029
:104140000A024946204605D100F0B3FA81460746E7
:10415000079578E700F0ADFA3946814600230A2238
:10416000204600F0A6FA0746F2E74FF0000959464C
:104170000122204600F012FC3146834600F062FC2A
:104180000028B8DC02D118F0010FB4D115F8013CB9
:104190006A1E302B7FF40FAF1546F7E7069B93425C
:1041A00005D13123069A0AF1010A137003E7154677
:1041B000A1E7174BFFF7E1BA229B002B7FF4BBAAC4
:1041C000144BFFF7DABA1E9B012B7FF73FAE0C9B17
:1041D000089353E6049B002B03DC1E9B022B3FF746
:1041E000D5AE069D31465846FFF7D2F9069B00F141
:1041F000300805F8018B049AEB1A9A42B5DD59464E
:1042000000230A22204600F054FA8346EAE700BF62
:1042100024560008485600088A892DE9F0410546D1
:1042200010070C4658D44B68002B05DC0B6C002B98
:1042300002DC0020BDE8F081E66A002EF9D0002300
:1042400012F480522F68216A2B6032D0606DA389EE
:104250005A0705D56368C01A636B0BB1236CC01A8B
:1042600000230246E66A216A2846B047431CA38918
:1042700006D129681D2948D8294ACA40D60744D5FD
:10428000002262602269D904226004D5421C01D157
:104290002B6803B96065616B2F600029C9D004F1F8
:1042A0004403994202D0284600F0A2FC002060633B
:1042B000C0E701232846B047411CC8D12B68002B1A
:1042C000C5D01D2B01D0162B01D12F60B1E7A389DA
:1042D00043F04003A381ADE70F69002FA9D09307F6
:1042E00018BF00230E6808BF4B69A6EB07080F60D4
:1042F0008B60B8F1000F9CDD43463A46216A2846A0
:10430000A66AB047002806DCA38943F04003A381D6
:104310004FF0FF308EE70744A8EB0008E9E700BF45
:104320000100402038B50B6905460C46DBB118B1D9
:1043300083690BB900F060F80C4B9C4209D16C68A2
:10434000B4F90C307BB121462846BDE83840FFF770
:1043500063BF074B9C4201D1AC68F1E7054B9C421F
:1043600008BFEC68ECE7002038BD00BF78560008B5
:104370009856000858560008002310B50446C0E9B6
:104380000033836081814366C281C0E90433836165
:10439000194608225C30FEF748FB054B2462636235
:1043A000044BA362044BE362044B236310BD00BFC4
:1043B0007D5200089F520008D7520008FB520008A7
:1043C000014900F085B800BF2543000870B5682595
:1043D0004A1E55430E4605F1740100F055FC044693
:1043E00040B10021C0E900160C30A06005F1680260
:1043F000FEF71BFB204670BD836910B5044633BB36
:10440000C0E912330365124B124A1B68826298425C
:1044100004BF0123836100F01FF86060204600F0B4
:104420001BF8A060204600F017F80022E06004218D
:104430006068FFF7A1FF01220921A068FFF79CFF38
:1044400002221221E068FFF797FF0123A36110BD4C
:1044500010560008C1430008F8B51B4B07461E68FC
:10446000B36913B93046FFF7C7FF4836D6E90134C0
:10447000013B03D5336833B13668F7E7B4F90C5024
:104480006DB16834F4E704213846FFF79FFF3060D0
:104490000028F1D10C2304463B602046F8BD0B4BAD
:1044A0006566C4E90055A560C4E90335C4E905554E
:1044B0000822294604F15C00FEF7B7FAC4E90D555D
:1044C000C4E91255E9E700BF105600080100FFFFDC
:1044D0002DE9F84380468946002600F1480414B9C6
:1044E0003046BDE8F883D4E90175013F01D5246861
:1044F000F5E7AB89012B07D9B5F90E30013303D0AD
:1045000029464046C84706436835EEE7044B1B681A
:10451000186A044B002808BF1846F030704700BFE7
:104520000C0000207000002070B50E46B1F90E108E
:1045300096B0002914461D4607DA00232B60B38984
:104540001A0610D44FF480630EE06A4600F0FCFEB9
:104550000028F2DB019A02F47042A2F500535A429D
:104560005A412A60EEE740230020236016B070BD58
:104570008B8973B59D0706460C4607D504F14703A2
:10458000236023610123636102B070BD01AB6A4601
:10459000FFF7CAFF00990546304600F075FB48B9A1
:1045A000B4F90C309A05EFD423F0030343F002036F
:1045B000A381E3E70D4BB362A389206043F080033E
:1045C000A381009B20616361019B5BB1B4F90E1074
:1045D000304600F0CBFE28B1A38923F0030343F05B
:1045E0000103A381A3891D43A581CDE7C143000831
:1045F000024B0146186800F047BB00BF0C000020CA
:1046000010B5C9B202449042034601D1002303E031
:104610001C7801308C42F6D1184610BD70B5456A41
:1046200004460E463DB91020FFF7E2FF6062C0E984
:1046300001550560C560656AEB6883B1636ADB6834
:1046400053F82600B8B9012101FA06F56A1D920057
:10465000204600F0BEFA60B1C0E901650EE02122FB
:104660000421204600F0B5FA636AE860DB68002B9D
:10467000E4D1002070BD026843F826200023C0E981
:104680000333F7E770B5446A06460D463CB910207F
:10469000FFF7AEFF7062C0E901440460C4603DB141
:1046A000736A6A68DB6853F82210296043F8225065
:1046B00070BD2DE9F0411F4606460C4600230D69EA
:1046C00001F1140CDCF80000013381B202FB01712E
:1046D000000C0F0C02FB007089B201EB00419D42FF
:1046E0004FEA10474CF8041BECDCD7B1A368AB428F
:1046F00012DC616830460131FFF790FF8046226985
:1047000004F10C01023292000C30FEF783F92146CD
:104710003046FFF7B7FF444604EB850301355F6180
:1047200025612046BDE8F081020C12040346B2B9AF
:104730000304102013F07F4F04BF1B02083013F056
:10474000704F04BF1B01043013F0404F04BF9B00A7
:104750000230002B06DB5B0003D5013070470020E0
:10476000E8E7202070470368014613F007020BD0EA
:10477000DA0723D4980749BF5B089B0801200B6028
:104780005CBF0B600220704798B2A8B910201B0CC8
:1047900013F0FF0F04BF1B0A08301A0704BF1B09E0
:1047A00004309A0704BF9B080230DA0702D45B0882
:1047B00006D001300B6070471046E9E700207047D3
:1047C0002020704710B50C460121FFF727FF01227A
:1047D0004461026110BD2DE9F74F14460A6923694F
:1047E00088469A42BEBF0B46A0461C46D8F81070B9
:1047F000D4F81090D8F80830D8F8041007EB090660
:10480000B342B8BF0131FFF709FF00F114052B4691
:10481000002205EB860E734516D304F1140208F14D
:10482000140102EB890301EB87070093009B0192BF
:1048300093420CD8002E03DD5EF8043D002B5DD0C2
:10484000066103B0BDE8F08F43F8042BE3E7B2F84C
:1048500000B0BBF1000F23D08946AC464FF00008F2
:1048600059F8044BDCF800A0A3B21FFA8AFA0BFB3C
:1048700003A34FEA144ADCF8004043444FEA1448CB
:104880000BFB0A84E24604EB13449BB243EA044365
:104890004F454FEA14484AF8043B2BD8CCF8048023
:1048A000019B0432B3F802A0BAF1000F20D0894670
:1048B000A8464FF0000B2B68B9F800C0B8F80240CA
:1048C0009BB20AFB0C44C4465C4443EA04434CF8E4
:1048D000043B59F8043BB8F804B01B0C0AFB03B3C3
:1048E0004F4503EB14434FEA134B05D8C8F8043087
:1048F00004359BE7D446B3E7E046DDE7013E99E7A0
:104900002DE9F843154612F0030206460F4607D07C
:10491000214C013A002354F82220FFF7CAFE074633
:10492000AD1035D0746A3CB91020FFF761FE70629B
:10493000C0E901440460C460D6F82480D8F8084077
:104940004CB940F271213046FFF73CFF002304468A
:10495000C8F8080003604FF00008EB070AD5394695
:1049600022463046FFF737FF814639463046FFF78B
:1049700089FE4F466D100BD0206838B9224621467B
:104980003046FFF728FF2060C0F800800446E4E7C7
:104990003846BDE8F88300BFA85700082DE9F04766
:1049A0000C460746164623694FEA621A0AEB0309CA
:1049B0004968A36809F10105AB4232DB3846FFF7CD
:1049C0002DFE002380461A4600F1140153452BDBCF
:1049D00020692AEAEA7A04F1140316F01F0201EBB7
:1049E0008A0103EB800C25D00020C2F1200E8A46FC
:1049F0001E68964030434AF8040B53F8040B9C455C
:104A000020FA0EF014D8486008B109F10205013D02
:104A10003846C8F810502146FFF734FE4046BDE83E
:104A2000F08701315B00C7E741F823200133CDE770
:104A30005146DCE7043953F8042B9C4541F8042F18
:104A4000F9D8E4E703690A6930B59B1A0CD19200E2
:104A5000143014318418114454F8045D51F8042DB5
:104A6000954203D005D30123184630BDA042F3D3AD
:104A7000FAE74FF0FF33F7E72DE9F0470D46074619
:104A8000114628461446FFF7DDFF061E08D13146C1
:104A90003846FFF7C3FD0123C0E90436BDE8F087BF
:104AA000A4BF23462C4638466168A6BF1D46002693
:104AB0000126FFF7B3FD4FF0000EC6602B69266993
:104AC00004F1140205F1140902EB860709EB8308CF
:104AD00000F1140152F804AB59F8045B1FFA8AF391
:104AE0007344ACB21B1B2C0CC4EB1A4404EB2344E0
:104AF0009BB24FEA244EC84543EA0444944641F829
:104B0000044BE7D8BC4504D351F8043D83B106619A
:104B1000C4E75CF8044BA2B27244131403EB1443D1
:104B200092B242EA03424FEA234E41F8042BE9E7EE
:104B3000013EE9E72DE9F3411C46DDE90865012165
:104B40009046FFF76BFDC4F31302C4F30A54074603
:104B500034BB0192B8F1000227D002A840F8082D1A
:104B6000FFF701FE0099F0B1019AC0F1200302FAAB
:104B700003F30B43C2407B610192019B002B14BFE6
:104B800002210121BB613961C4B1A4F23344044460
:104B90003460C0F135002860384602B0BDE8F081CD
:104BA00042F48012D5E77961E7E701A8FFF7DBFD62
:104BB0000121019B39617B612030E5E7A0F23240A1
:104BC00007EB810330601869FFF7AEFDC0EB4110C1
:104BD000E1E738B502FB01F4214600F055F805463F
:104BE00018B122460021FDF720FF284638BD0000FD
:104BF00038B50546002943D051F8043C0C1F002B62
:104C0000B8BFE41800F0FFFB1E4A1368104633B922
:104C1000636014602846BDE8384000F0F5BBA3424D
:104C20000BD921686218934201BF1A685B68521859
:104C3000226063600460EDE713465A680AB1A2423D
:104C4000FAD919685818A0420BD1206801445818A5
:104C500082421960DED110685268014419605A60BE
:104C6000D8E702D90C232B60D4E7206821188A42A8
:104C700001BF116852680918216062605C60C9E771
:104C800038BD00BFFC01002070B5CD1C25F0030528
:104C900008350C2D38BF0C25002D064601DBA94236
:104CA00003D90C233360002070BD00F0ACFB214A17
:104CB0001468214691B9204C23681BB9304600F096
:104CC000CDFA20602946304600F0C8FA431C24D1B2
:104CD0000C233046336000F097FBE4E70B685B1B66
:104CE00018D40B2B0FD90B60CC18CD50304600F0E8
:104CF0008BFB04F10B00231D20F00700C31AD3D057
:104D00005A42E250D0E74B688C4216BF6360136092
:104D10000C46EBE70C464968CCE7C41C24F00304BE
:104D2000A04205D0211A304600F098FA0130CFD0C9
:104D30002560DBE7FC010020000200202DE9F047A0
:104D40008E6882469E420C469046994637D88A899C
:104D500012F4906F31D00223256809696F1A6569D2
:104D600005EB450595FBF3F509F101033B449D4235
:104D700038BF1D46530530D52946FFF785FF064647
:104D800050B90C234FF0FF30CAF80030A38943F02C
:104D90004003A381BDE8F0873A462169FDF73AFE5A
:104DA000A38923F4906343F08003A38126613E44EA
:104DB00026604E466561ED1BA5604E4500D94E4606
:104DC00032464146206800F005FBA36800209B1B8B
:104DD000A36023681E442660DCE72A4600F015FB2A
:104DE00006460028E2D121695046FFF701FFC8E7D7
:104DF0002DE9F04F1D468B899DB01F0680460C465D
:104E000016460FD50B696BB94021FFF73DFF2060B7
:104E1000206128B90C23C8F800304FF0FF30C8E0FB
:104E2000402363610023099320238DF82930302328
:104E30004FF0010B8DF82A30039537463D4615F8A3
:104E4000013B0BB1252B3ED1B7EB060A0BD05346E5
:104E5000324621464046FFF771FF013000F0A48042
:104E6000099B534409933B78002B00F09D8000235D
:104E70004FF0FF32CDE90523049307938DF85330AB
:104E80001A932F46052217F8011B5048FFF7B8FB6D
:104E9000049BD0B9D90644BF20228DF853201A07AD
:104EA00044BF2B228DF853202A782A2A15D02F466A
:104EB00000200A25079A394611F8013B303B092B9F
:104EC0004DD9B8B10FE02F46B8E7404A3D46801AA9
:104ED0000BFA00F018430490D3E7039A111D1268EF
:104EE0000391002A01DB079204E0524243F00203DF
:104EF000079204933B782E2B0CD17B782A2B33D14D
:104F0000039B02371A1D1B680392002BB8BF4FF09A
:104F1000FF3305932E4D032239782846FFF770FBA7
:104F200038B14023401B03FA00F0049B01370343D0
:104F300004933978062227487E1C8DF82810FFF745
:104F40005FFB002838D0244B13BB039B073323F0AF
:104F5000070308330393099B4B4409936DE705FB53
:104F6000023201200F46A6E700230A251946013721
:104F70000593384610F8012B303A092A03D9002B43
:104F8000C8D00591C6E705FB012101230746F0E7DC
:104F900003AB00932246114B04A94046FDF7DEFD0A
:104FA000B0F1FF3F8146D6D1A3895B063FF535AF0F
:104FB00009981DB0BDE8F08F03AB00932246074B64
:104FC00004A94046FEF776F8EAE700BFB4570008A8
:104FD000BA570008BE5700085D2B00083D4D000879
:104FE000936810B4013B002B936007DA9469A342E5
:104FF00001DB0A2902D110BCFEF70ABA1368581C5B
:1050000010601970084610BC7047F8B506460F4688
:105010001446D518AC4201D1002007E03A4614F8F6
:10502000011B3046FFF7DCFF431CF3D1F8BD000045
:105030002DE9F04F0C469DB017461D46064618B1A7
:1050400083690BB9FFF7D8F97C4B9C4258D174683F
:10505000A38918075ED52369002B5BD00023099331
:1050600020238DF8293030234FF0010B8DF82A30A2
:105070000395B846454615F8013B0BB1252B54D195
:10508000B8EB070A0BD053463A4621463046FFF7A5
:10509000BCFF013000F0C280099B5344099398F88B
:1050A0000030002B00F0BA8000234FF0FF32CDE932
:1050B0000523049307938DF853301A93A8460522CD
:1050C00018F8011B5E48FFF79BFA049B78BBD906D2
:1050D00044BF20228DF853201A0744BF2B228DF89D
:1050E00053202A782A2A2AD0A84600200A25079A7F
:1050F000414611F8013B303B092B69D960B324E0EC
:10510000504B9C4201D1B468A2E74F4B9C4208BF70
:10511000F4689DE721463046FEF7CCF900289DD083
:105120004FF0FF301DB0BDE8F08FA846A2E7444A1B
:105130004546801A0BFA00F018430490BEE7039A24
:10514000111D12680391002A01DB079204E052420C
:1051500043F002030792049398F800302E2B0ED1EF
:1051600098F801302A2B38D1039B08F102081A1D48
:105170001B680392002BB8BF4FF0FF330593334DEC
:10518000032298F800102846FFF73AFA40B140236E
:10519000401B03FA00F0049B08F101080343049349
:1051A00098F8001006222A4808F101078DF8281007
:1051B000FFF726FA002837D0264B1BBB039B07338B
:1051C00023F0070308330393099B4B44099350E7EB
:1051D00005FB0232012088468AE700230A2519468A
:1051E00008F101080593404610F8012B303A092ACE
:1051F00003D9002BC3D00591C1E705FB0121012391
:105200008046F0E703AB00932246134B04A93046D7
:10521000FDF7A4FCB0F1FF3F8146D5D1A3895B0621
:105220003FF57EAF09987DE703AB009322460A4B1A
:1052300004A93046FDF73EFFECE700BF78560008B2
:10524000B45700089856000858560008BA57000886
:10525000BE5700085D2B00080B50000838B500232E
:10526000054C054608462360FDF738FB431C02D178
:10527000236803B12B6038BD9C04002010B50C4698
:10528000B1F90E1000F0E8F80028ABBF636DA389F8
:105290001B1823F48053ACBF6365A38110BD2DE9B7
:1052A000F0411F468B890546DB050C46164605D5A1
:1052B00002230022B1F90E1000F068F8A3893246EB
:1052C00023F48053A381B4F90E103B462846BDE871
:1052D000F04100F017B810B50C46B1F90E1000F00F
:1052E00055F8431CA38915BF606523F4805343F42C
:1052F0008053A38118BFA38110BDB1F90E1000F037
:1053000013B8000038B50546084611460022054C82
:1053100022601A46FDF79EF9431C02D1236803B1AF
:105320002B6038BD9C04002038B50023054C054691
:1053300008462360FDF7ECFA431C02D1236803B151
:105340002B6038BD9C04002038B50023064C054670
:10535000084611462360FDF7DEFA431C02D123689C
:1053600003B12B6038BD00BF9C04002038B500237A
:10537000054C054608462360FDF7D2FA431C02D1CE
:10538000236803B12B6038BD9C04002038B5054666
:10539000084611460022054C22601A46FDF7C2FA63
:1053A000431C02D1236803B12B6038BD9C0400204C
:1053B00082B001B901A942B14BB113780B601278E8
:1053C000101C18BF012002B070471046FBE76FF0B9
:1053D0000100F8E7884210B501EB020307D8421E2E
:1053E00099420AD011F8014B02F8014FF8E78342C5
:1053F000F5D98118D21AD34200D110BD13F8014D4E
:1054000001F8014DF7E770477047F8B507461446B5
:105410000E4621B9BDE8F8401146FFF735BC22B968
:10542000FFF7E6FB25462846F8BD00F034F8A04219
:105430000FD221463846FFF727FC05460028F2D058
:1054400031462246FDF7E6FA31463846FFF7D0FBF3
:10545000E9E73546E7E7000038B505460846114656
:105460000022054C22601A46FDF72AFA431C02D19D
:10547000236803B12B6038BD9C04002049B1FF2A8A
:105480008BBF8A230A700360012088BF4FF0FF3072
:1054900070470846704751F8043C181F002BBCBFEA
:1054A0000B58C01870470000F8B500BFF8BC08BC26
:1054B0009E467047F8B500BFF8BC08BC9E467047D2
:1054C00002030405060708090A0B0C0D0E0F101045
:1054D0006C800000010203040506070809FFFCF9BF
:1054E000F6060708090A0B0C4D6F64653A204D61FA
:1054F000737465720D004D6F64653A20536C61766C
:10550000650D00436F6E6669677572696E67204C42
:105510006F5261206D6F64756C650D00446F6E6530
:1055200020636F6E6669677572696E67204C6F5293
:10553000614D6F64756C650D004D6173746572200B
:105540002E2E2E0D0053656E64696E6720706163A8
:105550006B6167652E2E2E0D0048656C6C6F2025E3
:105560006400456E7472793A2025640D0A00536513
:105570006E64696E672025730D0A005472616E7344
:105580006D697373696F6E3A2025640D0A0050616E
:10559000636B6167652073656E742E2E2E0D00534C
:1055A0006C617665202E2E2E0D005265636569763E
:1055B000696E67207061636B6167652E2E2E0D002A
:1055C00052656365697665643A2025640D0A004377
:1055D0006F6E74656E7420282564293A2025730D3A
:1055E0000A005061636B6167652072656365697667
:1055F0006564202E2E2E0D0000000000000000002B
:105600000102030406070809000000000102030468
:1056100010000020494E4600696E66004E414E0063
:105620006E616E0030003031323334353637383900
:105630004142434445460030313233343536373801
:105640003961626364656600496E66696E69747982
:10565000004E614E0000000000000000000000004D
:10566000000000000000000000000000000000003A
:10567000000000000000000000000000000000002A
:10568000000000000000000000000000000000001A
:10569000000000000000000000000000000000000A
:1056A00000000000000000000000000000000000FA
:1056B00000000000000000000080E03779C3414393
:1056C000176E05B5B5B89346F5F93FE9034F384D68
:1056D000321D30F94877825A3CBF737FDD4F157514
:1056E000000000000000F03F000000000000244027
:1056F00000000000000059400000000000408F4002
:10570000000000000088C34000000000006AF8406C
:105710000000000080842E4100000000D012634190
:105720000000000084D797410000000065CDCD4106
:10573000000000205FA00242000000E876483742E7
:10574000000000A2941A6D42000040E59C30A24285
:105750000000901EC4BCD64200003426F56B0C43FA
:105760000080E03779C3414300A0D88557347643A1
:1057700000C84E676DC1AB43003D9160E458E14302
:10578000408CB5781DAF154450EFE2D6E41A4B4477
:1057900092D54D06CFF08044F64AE1C7022DB544BC
:1057A000B49DD9794378EA4405000000190000004F
:1057B0007D000000232D302B2000686C4C006566B6
:1057C00067454647004300504F534958002E00009C
:1057D00020202020202020202028282828282020A1
:1057E00020202020202020202020202020202020B9
:1057F0008810101010101010101010101010101031
:105800000404040404040404040410101010101010
:1058100010414141414141010101010101010101E9
:10582000010101010101010101010110101010101D
:1058300010424242424242020202020202020202BA
:1058400002020202020202020202021010101020E2
:105850000000000000000000000000000000000048
:105860000000000000000000000000000000000038
:105870000000000000000000000000000000000028
:105880000000000000000000000000000000000018
:105890000000000000000000000000000000000008
:1058A00000000000000000000000000000000000F8
:1058B00000000000000000000000000000000000E8
:1058C00000000000000000000000000000000000D8
:0458D0003501000896
:0458D40011010008B6
:1058D80001000000100000000024F4001000002067
:1058E800000000007856000898560008585600082E
:1058F80000000000000000000000000000000000A0
:10590800000000000000000000000000000000008F
:10591800000000000000000000000000000000007F
:10592800000000000000000000000000000000006F
:10593800000000000000000000000000000000005F
:10594800430000000000000000000000000000000C
:10595800000000000000000000000000000000003F
:1059680043000000000000000000000000000000EC
:10597800000000000000000000000000000000001F
:1059880043000000000000000000000000000000CC
:1059980000000000000000000000000000000000FF
:1059A80043000000000000000000000000000000AC
:1059B80000000000000000000000000000000000DF
:1059C800430000000000000000000000000000008C
:1059D80000000000000000000000000000000000BF
:1059E800430000000000000000000000000000006C
:1059F800000000000000000000000000000000009F
:105A0800430000000000000000000000000000004B
:105A1800000000000000000000000000000000007E
:105A28007D540008B153000800000000CF5700085B
:105A3800CD570008CE550008CE550008CE550008B1
:105A4800CE550008CE550008CE550008CE550008A2
:105A5800CE550008CE550008FFFFFFFFFFFFFFFFF0
:105A6800FFFFFFFFFFFF00000100415343494900CA
:105A7800000000000000000000000000000000001E
:105A880000000000000000000000415343494900A5
:105A980000000000000000000000000000000000FE
:0C5AA800000000000000000000000000F2
:040000050800297551
:00000001FF
