:020000040800F2
:100000000050002079140008191400081B1400087F
:100010001D1400081F14000821140008000000002F
:100020000000000000000000000000002314000891
:1000300025140008000000002714000829140008F7
:10004000C1140008C1140008C1140008C11400083C
:10005000C1140008C1140008C1140008C11400082C
:10006000C1140008C1140008C1140008C11400081C
:10007000C1140008C1140008C1140008C11400080C
:10008000C1140008C1140008C1140008C1140008FC
:10009000C1140008C1140008C1140008C1140008EC
:1000A000C1140008C1140008C1140008C1140008DC
:1000B000C1140008C1140008C1140008C1140008CC
:1000C000C1140008C1140008C1140008C1140008BC
:1000D000C1140008C1140008C1140008C1140008AC
:1000E000C1140008C1140008C11400080000000079
:1000F0000000000000000000000000000000000000
:0C01000000000000000000005FF808F1A3
:10010C0010B5054C237833B9044B13B10448AFF345
:10011C0000800123237010BD0C00002000000000A3
:10012C001C15000808B5034B1BB103490348AFF37A
:10013C00008008BD00000000100000201C15000805
:10014C0038B50E4B054618784FF47A73B3FBF0F3C1
:10015C000B4A1068B0FBF3F000F0B2F9044658B942
:10016C000F2D09D8024629464FF0FF3000F074F9E4
:10017C002046044B1D6038BD0120FCE70000002028
:10018C000800002004000020074A08B5136803206B
:10019C0043F01003136000F04DF90020FFF7D0FF7F
:1001AC0001F014F8002008BD00200240034A044B63
:1001BC0011681B780B441360704700BF28000020A7
:1001CC0000000020014B1868704700BF2800002079
:1001DC0038B50446FFF7F6FF0546631C1EBF044BFB
:1001EC001B78E418FFF7EEFF401BA042FAD338BD92
:1001FC0000000020002373B5019390F82430012BEC
:10020C006DD001234D6880F82430062D026805EB73
:10021C0085030C6823D81F26556B053B9E4025EAA9
:10022C00060504FA03F32B435363092C8B6804EB88
:10023C0044054FF007012AD9D6681E3DA94026EA8D
:10024C000101AB400B43D360A4F11003012B26D961
:10025C000023002280F82420184602B070BD0C2D1B
:10026C004FF01F0509D8166B233B9D4026EA050568
:10027C0004FA03F32B431363D7E7D66A413B9D4043
:10028C0026EA050504FA03F32B43D362CDE716697E
:10029C00A94026EA0101AB400B431361D4E7114B93
:1002AC009A4216D193681B02D2D49368102C43F453
:1002BC0000039360CCD10C4B0C4A1B68B3FBF2F2DD
:1002CC000A2353430193019B002BC1D0019B013B9B
:1002DC00F8E7836A43F0200383620123B9E7022322
:1002EC00BAE700BF002401400800002040420F0084
:1002FC0038B5036804469A68D20701D4002038BD8B
:10030C009A6822F001029A60FFF75CFF05462368A9
:10031C009B68DB07F2D5FFF755FF401B0228F6D987
:10032C00A36A012043F01003A362E36A43F00103C4
:10033C00E362E4E770B50446002870D0836A23B901
:10034C00C36280F8243000F063FF2046FFF7D0FF33
:10035C00A36A13F0100FA36A63D1002861D1E1697D
:10036C0023F48853626823F0020343F002030A4328
:10037C00A168A362237BB1F5807F42EA430237D0A8
:10038C00012914BF06464FF48076257D012D06D138
:10039C0083BBA369013B46EA433545F400662368F9
:1003AC00B1F5807F5D6825F4694545EA06055D6019
:1003BC009E681E4D05EA060545EA02059D6001D0C2
:1003CC00012920D1216901390905DD6A25F470055F
:1003DC002943D9629968164B0B409A4215D10023D8
:1003EC00E362A36A23F0030343F00103A36270BD2D
:1003FC000E46CAE7A36A43F02003A362E36A43F004
:10040C000103E362CBE70021DFE7A36A23F01203C9
:10041C0043F01003A362E36A43F00103E36201209B
:10042C00E5E743F01003A362F9E700BFFDF7E1FF36
:10043C00FE0E1FFF074A0002D36800F4E06023F4AD
:10044C00E0631B041B0C43F0BF6343F40033034312
:10045C00D360704700ED00E0174B70B5DC684FF0CF
:10046C00FF36C4F30224C4F10705042D04F1040380
:10047C0028BF0425062B98BF002406FA05F388BF75
:10048C00033C21EA0303A34006FA04F422EA040421
:10049C00002843EA0403A8BF00F160404FEA0313AD
:1004AC00B8BF064ADBB2ABBF00F5614000F00F00ED
:1004BC0080F80033135470BD00ED00E014ED00E043
:1004CC000138B0F1807F0AD2F021064B064A586001
:1004DC0082F823100020072298601A6070470120D0
:1004EC00704700BF10E000E000ED00E02DE9F74F91
:1004FC0000242646654BDFF8A4C1DFF8A4E10A68A6
:10050C0032FA06F502D103B0BDE8F08F4FF00108C6
:10051C0008FA06F802EA080290457ED14D68122DC1
:10052C0000F0A98000F28280022D00F0A18076D824
:10053C00002D00F08880012D00F098804FF00F09FD
:10054C00FF2A93BF824606F18045083DD0F800B0E3
:10055C0092BFB500D0F804B0AD0009FA05F82BEA4B
:10056C00080804FA05F588BF00F1040A48EA0505F5
:10057C00CAF80050D1F804A01AF0805F4DD0444F57
:10058C0026F00308BD6908F1804845F00105BD61FE
:10059C00BD6908F5803805F00105019506F0030BDF
:1005AC00019D4FEA8B0BD8F8085009FA0BF925EA94
:1005BC000909384DA84263D005F58065A84261D081
:1005CC0005F58065A8425FD005F58065A8420CBF93
:1005DC000325042505FA0BF545EA0905C8F808506A
:1005EC001D681AF4803F14BF154395431D605D6868
:1005FC001AF4003F14BF154395435D609D681AF4CF
:10060C00801F14BF154395439D60DD681AF4001FCD
:10061C0014BF2A4325EA0202DA6001366FE7032D84
:10062C0022D0112D8AD1CC68043487E71A4FBD42F1
:10063C0009D012D8DFF86C904D4504D009F58039FB
:10064C004D457FF47BAF8C68C4B1012C0CBFC0F856
:10065C001080C0F81480082470E76545F3D0754508
:10066C00F1D0DFF84490EBE7002467E7CC6865E74E
:10067C00CC68083462E7CC680C345FE704245DE78F
:10068C000025A7E70125A5E70225A3E70004014003
:10069C000010024000080140000021100000311041
:1006AC000000321000001110000022100AB101618C
:1006BC0070470904FBE7000070B5044608B9012037
:1006CC0070BD90F83D3003F0FF021BB980F83C2060
:1006DC0000F0CCFD2423226884F83D30136823F00D
:1006EC000103136000F000FB6368414A93424DD84C
:1006FC00404A9042E3D940492268B0FBF1F1556879
:10070C0025F03F050D435560156A25F03F05013175
:10071C0029431162D169364D21F44F41AB4221F08E
:10072C00FF0100F1FF3048D85B00B0FBF3F0431C35
:10073C00C3F30B03042B38BF04230B43D3611168A1
:10074C00D4E9073021F0C00103430B4313609168D7
:10075C00D4E9030321F40341034321F0FF010B43CC
:10076C009360D168D4E9053021F0FF0103430B43BA
:10077C00D3601368002043F001031360202320642E
:10078C0084F83D30206384F83E0099E71B4A904280
:10079C0095D9194E4FF49671B0FBF6F62268714359
:1007AC00556825F03F0535434FF47A765560156A48
:1007BC00B1FBF6F125F03F05A9E7A56855B903EBA8
:1007CC004303B0FBF3F0431CC3F30B036BB143F4D3
:1007DC000043B2E719256B43B0FBF3F0431CC3F3A2
:1007EC000B0313B143F44043A7E70123A5E700BF74
:1007FC00A08601007F841E0040420F00FF083D00D0
:10080C002DE9F341054608B901203CE00368DB07FC
:10081C0010D42B689F075DD42B68190700F19480C6
:10082C002B685A0700F1BE80E869002840F02C8143
:10083C00002028E08F4C636803F00C03042B07D0D6
:10084C00636803F00C03082B09D16368DE0306D53B
:10085C0023689C03DDD56B68002BDAD1D4E76B6879
:10086C00B3F5803F12D1236843F480332360FFF744
:10087C00A9FC064623689803CBD4FFF7A3FC801B86
:10088C006428F7D9032002B0BDE8F0819BB9236836
:10089C0023F480332360236823F480232360FFF741
:1008AC0091FC064623689903B3D5FFF78BFC801B9C
:1008BC006428F7D9E6E7B3F5A02F236803D143F4F6
:1008CC0080232360CFE723F480332360236823F451
:1008DC008023CBE7674C636813F00C0F07D0636879
:1008EC0003F00C03082B10D16368DA030DD42368D2
:1008FC009B0702D52B69012B86D123686A6923F0EB
:10090C00F80343EAC203236086E72A695A4B6AB1AB
:10091C0001221A60FFF756FC064623689F07ECD4A9
:10092C00FFF750FC801B0228F7D9ABE71A60FFF7E2
:10093C0049FC0646236898077FF56EAFFFF742FC2B
:10094C00801B0228F6D99DE7AA694A4C4B4BDAB1B9
:10095C0001221A60FFF736FC0646636A9B070DD529
:10096C004FF4FA52464B1B68B3FBF2F3019300BFF2
:10097C00019B5A1E0192002BF9D151E7FFF722FC83
:10098C00801B0228E9D97DE71A60FFF71BFC06469D
:10099C00636A9F077FF544AFFFF714FC801B0228A6
:1009AC00F6D96FE7334CE369D80024D40127E36907
:1009BC0043F08053E361E36903F080530093009BA1
:1009CC00304E3368D90518D5EB68012B26D1236A34
:1009DC0043F001032362FFF7F5FB41F288368046B2
:1009EC00236A9B073FD5002F3FF41EAFE36923F02A
:1009FC008053E36118E70027E2E7336843F4807320
:100A0C003360FFF7DFFB80463368DA05DCD4FFF791
:100A1C00D9FBA0EB08006428F6D933E7ABB9236AFD
:100A2C0041F2883823F001032362236A23F0040384
:100A3C002362FFF7C7FB0646236A9807D3D5FFF757
:100A4C00C1FB801B4045F7D91CE7052B236A03D15A
:100A5C0043F004032362BAE723F001032362236A01
:100A6C0023F00403B6E7FFF7ADFBA0EB0800B042A0
:100A7C00B6D907E70010024000004242800442420F
:100A8C0008000020007000402A4B5A681C4602F0F7
:100A9C000C02082A3DD00023274E022833602BD1AC
:100AAC00FFF790FB0746236899011FD42B6AB3F517
:100ABC00803F05D16268A96822F400320A43626063
:100ACC00696A62680B4322F4741213436360012356
:100ADC003360FFF777FB054623689A013FF5A8AE14
:100AEC00FFF770FB401B0228F6D9CBE6FFF76AFB39
:100AFC00C01B0228D7D9C5E6FFF764FB054623685F
:100B0C009B017FF595AEFFF75DFB401B0228F6D9E4
:100B1C00B8E601283FF4B7AE58682B6A00F480326F
:100B2C009A427FF471AE6B6A00F47010C01A18BF51
:100B3C000120A8E6001002406000424230B5184B7C
:100B4C0087B002AC03F110052246186859680833C7
:100B5C0003C2AB421446F7D140F201231149ADF860
:100B6C0004304B6803F00C02082A17D1C3F38342FC
:100B7C0006A80244DB0312F8102C0CD54B680A486B
:100B8C00C3F34043504306AA134413F8143CB0FB80
:100B9C00F3F007B030BD05485043FAE70248F8E7D8
:100BAC00341500080010024000127A0000093D00C4
:100BBC002DE9F0410D46044610B90120BDE8F08145
:100BCC00444A136803F007038B4228D321688E072D
:100BDC0030D4CA0743D43F4A136803F00703AB422F
:100BEC0065D822683C4D12F0040F6CD1130706D562
:100BFC006B68226923F4605343EAC2036B60FFF70E
:100C0C009DFF6B68354AC3F30313D35CD840344B58
:100C1C001860344B1868FFF793FA0020CEE713687E
:100C2C0023F007030B431360136803F007038B4295
:100C3C00C3D1CBE7284B11F0040F1EBF5A6842F406
:100C4C00E0625A60080742BF5A6842F460525A6028
:100C5C005A68A06822F0F00202435A60B9E7626851
:100C6C001D4E012A33681AD113F4003FA5D07368C6
:100C7C0041F2883823F0030313437360FFF7A2FAA1
:100C8C0007467368626803F00C03B3EB820FA2D0C3
:100C9C00FFF798FAC01B4045F3D903208EE7022AD0
:100CAC0002D113F0007FE1E713F0020FDEE71368C7
:100CBC0023F007032B431360136803F00703AB42C5
:100CCC007FF47BAF8DE76B68E16823F4E0630B4343
:100CDC006B608BE7002002400010024044150008B6
:100CEC000800002004000020044B054A5B68C3F395
:100CFC000223D35C034A1068D840704700100240AE
:100D0C005415000808000020044B054A5B68C3F327
:100D1C00C223D35C034A1068D840704700100240CD
:100D2C00541500080800002003682DE9F341D90789
:100D3C00054620D5354CE369DA0032D40127E36946
:100D4C0043F08053E361E36903F080530193019B0B
:100D5C002F4E3368DB0526D5236A13F4407336D146
:100D6C00236A6A6823F44073134323621FB1E36957
:100D7C0023F08053E3612868830706D5234AA968CA
:100D8C00536823F440430B43536010F010001BD006
:100D9C001E4AE9685368002023F480030B43536018
:100DAC0012E00027D4E7336843F480733360FFF715
:100DBC0009FA80463368D805CED4FFF703FAA0EBC6
:100DCC0008006428F6D9032002B0BDE8F0816A68F7
:100DDC0002F440729A42C3D001200E4A236A10607A
:100DEC00002023F4407110602162D907B8D5FFF7B9
:100DFC00E9F941F288380646236A9A07B0D4FFF71E
:100E0C00E1F9801B4045F7D9DDE700BF0010024037
:100E1C00007000404004424210B50446002834D013
:100E2C000023836290F8513003F0FF021BB980F865
:100E3C00502000F057FA0223226884F851301368CE
:100E4C00A16923F040031360D4E901300343E06847
:100E5C0003432069034360690343E0690343206A49
:100E6C000343A06A034301F40070090C034301F02F
:100E7C00040113605160D369002023F40063D36133
:100E8C000123606584F8513010BD0120FCE700009F
:100E9C0038B505460368C1681A69192422F4405212
:100EAC000A431A6182680069D9680243686921F4AF
:100EBC00B05121F00C0102430A43DA605A69A96966
:100ECC0022F440720A435A610D4A934214D1FFF73F
:100EDC001BFF60436C686422A400B0FBF4F0B0FB11
:100EEC00F2F102FB11031B013233B3FBF2F32C685A
:100EFC0003EB0113A36038BDFFF7F6FEE9E700BF73
:100F0C000038014010B5044640B390F8393003F076
:100F1C00FF021BB980F8382000F03EFA2423226827
:100F2C0084F83930D368204623F40053D360FFF79C
:100F3C00AFFF236800201A6922F490421A615A69A3
:100F4C0022F02A025A61DA6842F40052DA60202355
:100F5C00E06384F8393084F83A3010BD0120FCE7A6
:100F6C00F8B507460D4600240E4EBC424FF0010268
:100F7C004FF4005104DBBDE8F8400A48FFF796BB7C
:100F8C003046FFF793FB2846FFF722F900224FF477
:100F9C0000513046FFF78AFB2846FFF719F9013458
:100FAC00E3E700BF0010014010B5142494B02246B2
:100FBC0000210CA800F0A4FA22460DEB040000213D
:100FCC0000F09EFA0021102201A800F099FA0224E8
:100FDC0001224FF48033CDE90A23CDE911434FF4BC
:100FEC00E0130AA80E921393FFF70AFC0F234FF499
:100FFC008062CDE905340023214605A8CDE90732EE
:10100C000993FFF7D5FD4FF4004301A80194039316
:10101C00FFF78AFE14B010BD00B589B0FFF7B4F825
:10102C00FFF7C2FF102200210DEB020000F068FA5E
:10103C00594B4FF400519A69584842F010029A618A
:10104C009A69002402F010020092009A9A69012613
:10105C0042F020029A619A69022502F02002019264
:10106C00019A9A6942F004029A619A6902F00402A8
:10107C000292029A9A6942F008029A619B690022D4
:10108C0003F008030393039BFFF710FB00220221DC
:10109C004348FFF70BFB00224FF484514148FFF704
:1010AC0005FB4FF4005304A93C48CDE90436CDE9C7
:1010BC000645FFF71BFA04A93948CDE90456CDE9DA
:1010CC000645FFF713FA4FF4845304A93548CDE9CC
:1010DC000436CDE90645FFF709FA402304A9314847
:1010EC00314DCDE904340694FFF700FA2F4B284616
:1010FC002B604FF460232E61EB61AC602C732C756C
:10110C006C60CDE904440694FFF714F904A9284651
:10111C00CDE904460694FFF76DF82548254A264B81
:10112C00C0E90244C0E900234FF48043C0E90644FF
:10113C00C0E904340462FFF7BFFA4FF482731F480E
:10114C001F494FF48025C0E900130823C0E906535A
:10115C000A25C0E90244C0E90444C0E90844846299
:10116C00C562FFF759FE4FF4E1331648164EC0E93D
:10117C000244C0E900630C230461C0E90534C46176
:10118C00FFF7C0FE4FF47A712846FFF7E9FE6421A1
:10119C000846FFF7E5FEFEE7001002400010014094
:1011AC0000080140000C0140800000200024014098
:1011BC002C00002000540040A0860100B00000204C
:1011CC000030014008010020004400400E4B82B06A
:1011DC009A6942F001029A619A6902F00102009246
:1011EC00009ADA6942F08052DA61DB69074A03F04F
:1011FC0080530193019B536823F0E06343F0007329
:10120C00536002B0704700BF001002400000014064
:10121C0010B5044686B01022002102A800F070F927
:10122C002268104B9A421BD103F56C439A6902A9B0
:10123C0042F400729A619A690B4802F400720092AF
:10124C00009A9A6942F004029A619B69012203F0A8
:10125C0004030193019B0323CDE90223FFF746F915
:10126C0006B010BD002401400008014010B5044632
:10127C0086B01022002102A800F042F92268154B1A
:10128C009A4224D1144C4FF44072A36902A943F042
:10129C000803A361A369114803F008030093009BA2
:1012AC001223CDE9022303230593FFF71FF90C4A00
:1012BC00536843F0E06343F002035360E36943F483
:1012CC000013E361E36903F400130193019B06B07F
:1012DC0010BD00BF0054004000100240000C014043
:1012EC000000014070B51024054688B0224600214C
:1012FC000DEB040000F004F92A68234B9A4241D10B
:10130C0003F560439A69022642F480529A619A6905
:10131C00032502F480520192019A9A690DEB0401A3
:10132C0042F004029A619A69184802F0040202928F
:10133C00029A9A6942F008029A619B69079503F038
:10134C0008030393039B4FF40043CDE90436FFF7E6
:10135C00CDF828230DEB04010D48CDE90436079593
:10136C00FFF7C4F800230DEB04010948CDE9053360
:10137C000494FFF7BBF8074A536843F0E06343F06B
:10138C000103536008B070BD0030014000080140FB
:10139C00000C01400000014010B5044686B010223C
:1013AC00002102A800F0ACF82268164B9A4226D114
:1013BC0003F5E633DA6902A942F40032DA61DA693C
:1013CC00114802F400320092009A9A6942F0040229
:1013DC009A619B69042203F004030193019B02238D
:1013EC00CDE9022303230593FFF780F8082100239E
:1013FC000548CDE9021302A90493FFF777F806B06C
:10140C0010BD00BF00440040000801407047FEE7DB
:10141C00FEE7FEE7FEE7704770477047FEF7C6BE73
:10142C000F4B1A6842F001021A6059680D4A0A40C3
:10143C005A601A6822F0847222F480321A601A6898
:10144C0022F480221A605A6822F4FE025A604FF489
:10145C001F029A604FF00062034B9A60704700BF06
:10146C00001002400000FFF800ED00E0002103E056
:10147C000B4B5B58435004310A480B4B42189A42B1
:10148C00F6D30A4A02E0002342F8043B084B9A4286
:10149C00F9D3FFF7C5FF00F00FF8FFF7BDFD70475C
:1014AC0064150008000000200C0000200C00002037
:1014BC004C010020FEE7000070B500250C4E0D4CD1
:1014CC00A41BA410A54209D100F022F800250A4E55
:1014DC000A4CA41BA410A54205D170BD56F82530AA
:1014EC0098470135EEE756F8253098470135F2E775
:1014FC005C1500085C1500085C15000860150008F8
:10150C0003460244934200D1704703F8011BF9E7EC
:10151C00F8B500BFF8BC08BC9E467047F8B500BFD4
:08152C00F8BC08BC9E467047A4
:1015340002030405060708090A0B0C0D0E0F101010
:10154400000000000000000001020304060708096F
:08155400000000000102030485
:04155C003101000851
:041560000D01000871
:0C15640001000000100000000024F40052
:040000050800147962
:00000001FF
